:040000006F40D03647
:1000040000000000000000002C4000002E40000012
:10001400000000006A4B0000000000000000000027
:100024006A4B00006A4B0000000000000000000062
:100034006A4B0000000000006A4B00000000000052
:100044006A4B00006A4B00006A4B00006A4B0000D8
:100054006A4B00006A4B00006A4B00006A4B0000C8
:100064006A4B00006A4B00006A4B00006A4B0000B8
:100074006A4B00006A4B00006A4B00006A4B0000A8
:100084006A4B00006A4B00006A4B00006A4B000098
:100094006A4B00006A4B00006A4B00006A4B000088
:1000A4006A4B00006A4B00006A4B00006A4B000078
:1000B4006A4B00006A4B00006A4B00006A4B000068
:1000C4006A4B00006A4B00006A4B00006A4B000058
:1000D4006A4B00006A4B00000A0F0000082200006F
:1000E4006A4B00006A4B00006A4B00006A4B000038
:1000F4006A4B00006A4B00006A4B00006A4B000028
:10010400000000006A4B00006A4B00006A4B0000CC
:100114005408000018340000AC3F00006A4B000093
:100124006A4B00006A4B00006A4B00006A4B0000F7
:100134006A4B00006A4B00006A4B00006A4B0000E7
:100144006A4B00006A4B00006A4B00006A4B0000D7
:100154006A4B00006A4B00006A4B00006A4B0000C7
:100164006A4B00003C1A00006A4B00006A4B000016
:100174006A4B00006A4B00006A4B00006A4B0000A7
:100184006A4B00006A4B00006A4B00006A4B000097
:100194006A4B00006A4B00006A4B00006A4B000087
:1001A400000000000000000000000000000000004B
:0C01B4000000000000000000000000003F
:1001C000397101436EC619A0397141536AC866CAB4
:1001D00062CC5ECE19A0397101535AD056D252D496
:1001E0004ED64AD826DA22DC06DE3301614082820E
:1001F00041114AC026C222C406C68282B24D4101C4
:10020000024D924C224CB24B4101024B924A224A7F
:10021000B2494101024992442244B24041018280E4
:100220003D432A876373C3029377F700BDEFADE5C3
:10023000937606FF3D8ABA960CC34CC30CC74CC7D5
:100240004107E36BD7FE11E28280B306C3408A0602
:100250009702000096966780A6002307B700A306C2
:10026000B7002306B700A305B7002305B700A30412
:10027000B7002304B700A303B7002303B700A3020A
:10028000B7002302B700A301B7002301B700A30002
:10029000B7002300B700828093F5F50F9396850091
:1002A000D58D93960501D58D61B79396270097025A
:1002B000000096968682E78086FA9680C1171D8F89
:1002C0003E96E374C3F8A5B7EFF29FF20144994458
:1002D0001375F40F9305C05D0504EF205079E31901
:1002E00094FE238E018C3DB7EFF29FED3971328C75
:1002F00036C637E40000AE84EF90B00A8325842E22
:10030000B7EB0000EF80D056AA8A2685EF907009DF
:100310008325842EEF80D0552A8B6285EF9070085C
:100320008325842EEF80D054B246AA843685EF9080
:1003300050078325842EEF80B05303A40B2D2A8A07
:100340005685A285EF90000C634C0500B7E70000CE
:1003500003A4472D5685A285EF9060026353A00049
:10036000A28A03A40B2D5A85A285EF90A009634CA5
:100370000500B7E7000003A4472D5A85A285EF903A
:1003800000006353A000228B03A40B2D2685A285B9
:10039000EF904007634C0500B7E7000003A4472D2A
:1003A0002685A285EF80B07D6353A000A28403A4BC
:1003B0000B2D5285A285EF90E004634C0500B7E752
:1003C000000003A4472D5285A285EF80507B635324
:1003D000A000228A03A981829387418283AC07000F
:1003E00023A0270183C9C18D1384C18D631A0C38E2
:1003F000B7E40000639B090485471CA0EF209057D9
:10040000930700001CC45CC4AA8948C04A85EF90C9
:10041000B00583A5042EEF80B045B7E7000083A5A3
:10042000C72E08C84E85EF90A006EF9020729375F6
:10043000F50F9307400633F6F50237E50000130584
:100440004530B3D5F502EF90905733059941EF90C1
:10045000B00183A5042EEF80B0412A8CEF2090518B
:10046000AA854840EF90002CB7E7000083A5072F2E
:10047000AA8906050581EF809070635FA002CE8592
:100480006285EF90E0000C44EF80F007B7E70000D2
:1004900083AC872DAA84E685EF80D076634C050077
:1004A000B7E7000083ACC72D2685E685EF80306D69
:1004B0006353A000E68404C4B7E7000083A5472F78
:1004C000628593040000EF80906B635AA0004C4457
:1004D0004E85EF902025E285EF809039AA84B7E71A
:1004E000000083A5872F084437EC0000EF80507A86
:1004F0008325CC2FAA8C4E85EF809079AA856685BE
:10050000EF8070008325CC2FAA8C2685EF80507851
:10051000AA856685EF80207F83AB0B2DAA84DE85BC
:10052000EF80506E634C0500B7E7000083AB472DAA
:100530002685DE85EF80B0646353A000DE84232629
:1005400034018549D6855A85EF90C01DD285EF804C
:10055000807BDA852AD45685EF80E07AD285EF90C9
:10056000601CB70B0080DA852AD633C55B01EF909B
:10057000601BD285EF90001BDA852AD85685EF9054
:10058000601AD285EF802078130A81022ADA26DCED
:1005900026DE930C0104D28A130B000093CBFBFFE1
:1005A00003AC0A00DA85337C7C016285EF80305D24
:1005B0006353A000628B910AE3945CFFB7E70000ED
:1005C00083A5472D5A85D28AEF80705B6346A01CB5
:1005D000B7E7000083AB072EB7E7000083AD472ED7
:1005E000014C130B007D930C703E5E8D938A018F3E
:1005F00003250A00DE85EF80B069EF90004F931766
:100600000501C1879387873E1307803EB387E702C2
:100610006A85B3C767039387873E63DBFC009396C5
:100620000701C1866E856345FB003685EF906057F4
:10063000EF90A04B42057C08E29741858AA3B387DF
:100640008A018AA3090CB147110AE313FCFAAC86AC
:100650000145EF20D041AC870545EF20504183553F
:1006600001020945EF20B040835521020D45EF20DE
:100670001040835541021145EF20703F83556102C0
:100680001545EF20D03E638B090E83A70182130727
:10069000803E938A0182B307F9406371F70EEF2021
:1006A000702D37EB0000AA898325CB2E484037E414
:1006B0000000EF80F05D83250430EF80C064EF9090
:1006C000C0428325CB2E2A8A4E85EF80705C83251D
:1006D0000430EF804063EF9040418325CB2EAA8900
:1006E0002685EF80F05A83250430EF80C061EF90BB
:1006F000C03F2A8437E5000013054536EF90302CC3
:1007000063580A001305D002EF90902F330A40413E
:10071000930540063366BA0237E5000013058537B6
:10072000B345BA02EF90B02963D809001305D0028F
:10073000EF90102DB30930419305400633E6B9021E
:1007400037E500001305C538B3C5B902EF9030276F
:10075000635804001305D002EF90902A33048040C0
:10076000930540063366B40237E500001305053AE9
:10077000B345B402EF90B02423A02A012161BDBC8F
:10078000E38209DC37E500001305C533EF90F0374D
:100790008149230004007DB303A50A00DA85910A8C
:1007A000EF80100D23AEAAFEE3985CFF15B5EFF2C3
:1007B0003FA47971854537050800EF4050228545F3
:1007C0004145EF40F01F93070040FC828D473ECC2F
:1007D0004C08E147371501403ECEEF4000428567A7
:1007E00093870780FC824C089147371501403ECE25
:1007F000EF40A040B7C70500375400409387878D6E
:100800000C103ED0130504C0B7070C003ED402D232
:1008100023160102EF40B062930740147C86680003
:1008200085473EC823070100EF40607C054613055D
:1008300004C093055052EF40F06A8545130504C08B
:10084000EF40F06837E500001305853EEF90F02B90
:100850004561C9B2411122C6375400409305505238
:10086000130504C026C4EF40F06C1DC5130504C079
:10087000EF40306B138761841C231375F50F1384CD
:10088000618493F7F70F91EF930760066316F50005
:100890002380A18485471CA33244A24441017300F4
:1008A00020301820938701843E9708A3182095468E
:1008B00005071377F70F18A01820E3FFE6FC98331D
:1008C000AC23B033D4233D8BBD892E973D8AC833EA
:1008D0003297BD8A36979384C1826313A704883305
:1008E000AC23B0336205D4236185E205E185238C16
:1008F000A18262066186A38CB182E206E186A38DA5
:10090000C182238DD18203A7018323AAE182E93A20
:100910000547A383E1842380040023000400ADBFC6
:100920009C201147850793F7F70F9CA09C20E37646
:10093000F7FEEFF07F99D5B79387718498231377EB
:10094000F70F19C783A601832380070023AED18246
:10095000B707002083C7072193F7F70F95C7EFF27A
:100960003F89938401831384C18318409C40998FED
:10097000130740066378F700EFF01F952386018286
:100980009C401CC06FF01F898280EFF27F8603A716
:10099000018383A74183B307F7400387A18383863D
:1009A000B183038691838385818337E50000130536
:1009B000C53AEF90D0006FF0FF85EFF2DF812A8417
:1009C000AE893289368ABA84EF80D023930700003B
:1009D0006354A004A6852285EF80701A9307000057
:1009E000635C0502CE852285EF8070196359A002F1
:1009F000CA852285EF8010216343A002CE8522851F
:100A0000EF8050522A84CE854A85EF80B051AA8566
:100A10002285EF80E065AA873E856FF00FFFCA85CB
:100A20002285EF80D0156358A000D2852285EF8003
:100A3000701D635AA000A2852685EF80B04E2A84DF
:100A4000D2852685D9B7B7E7000083A7472DE9B738
:100A5000EFF26FF8B7E7000003AB0730930900002F
:100A6000138445002A8A938445074E894C400840E8
:100A7000832A0A004104EF800029DA85EF805021A3
:100A8000D685EF80F020AA854A85EF80C0272A8985
:100A9000D6854E85EF802027AA89110AE39884FC29
:100AA000B7E7000083A5472FEF80D015930700001C
:100AB00063470500CE854A85EF80805BAA873E8527
:100AC0006FF0AFF4EFF22FF151712E89B2848145AE
:100AD0001306C0212A8436C6EFF08FF4B7E7000072
:100AE00083A7C72EB246232624011CD0B7E70000F7
:100AF00083A7474023202401396904C844C054C84F
:100B000014C45CD013060007930509190801EF907F
:100B1000E05F9309010893048402130A840983A700
:100B20000900A68541469CC083A749001385040798
:100B3000C109DCC083A789FF9CC483A7C9FFDCC4AB
:100B4000EF90C05CA6851385040E4146C104EF906A
:100B5000E05BE39644FD13090919930509071306A1
:100B600010032808EF90805A9305490A13061003D2
:100B7000E800EF90A0599305890D130610030801B2
:100B8000EF90C0582C081306100313058417EF903C
:100B9000E057EC00130610031305941AEF9000576A
:100BA0000C01130610031305A41DEF9020566D6170
:100BB0006FF0AFE5EFF2CFE071712A842E85B28538
:100BC00036C6EF8030360C4CAA89B7E40000EF80BF
:100BD0007035B7E7000083A507302A8A4E85EF807D
:100BE000300B03A984402A8BCA85EF804079634C7F
:100BF000A000B7E7000003A9C7405A85CA85EF8067
:100C00007000635305004A8B03A984405285CA854E
:100C1000EF80E076634DA000B7E7000003A9C7406E
:100C20005285CA85EF80007E634305005289930B8D
:100C3000C105714681455E85EFF08FDE71468145C5
:100C4000A818EFF0EFDD714681454809EFF04FDD60
:100C500093048402814A714CD8449444D0408C401F
:100C60005A85C104993BF854B454F050AC505C1010
:100C7000D69788C34A8591339C00D69788C3910A3A
:100C8000E39C8AFD930714033EC8B7E7000083A7DF
:100C9000472F4410A28A3ECA194C03AD0400130B1F
:100CA00001045689832D0B006A85EE85EF808075DF
:100CB00063530500EA8DD2456E85EF80406C635228
:100CC000A008830689178D06635CDC20994603071C
:100CD000991A0D07635AEC2019478307A91D938CB5
:100CE000370063579C21994C1C198A06BE9683A530
:100CF000C6FA6E853ACE36CCEF806068724763558F
:100D0000A000E24623A6B6FB0A071C193E978325DE
:100D100087FC6E853ACCEF8080666355A000624701
:100D20002324B7FD93972C001819BA9783A547FE83
:100D30006E853ECCEF80A0646355A000E24723A2FD
:100D4000B7FF110B0509E39F6BF5C2479D0A91049C
:100D5000E39557F593048410A6855E85D539AA8A54
:100D6000A6852326A420A818E5312A89A68523284C
:100D7000A4204809F13937EB000083250B41AA84F0
:100D8000232AA4205685EF80A0700C40EF70B07726
:100D9000B7E7000083A5872FAA8A08C04A85EF809D
:100DA000206F4C40EF70307683250B4148C02A8974
:100DB0002685EF80E06D0C44EF70F074AA8408C4BF
:100DC000930500005685EF80E063635505009307A7
:100DD00000001CC0930500004A85EF80A0626355A7
:100DE0000500930700005CC0930500002685EF8096
:100DF000606163550500930700001CC4B7E700005D
:100E000083A447410840A685EF8060576353A00044
:100E100004C0B7E4000003A984414840CA85EF80BC
:100E200000566354A0002322240183A48441084473
:100E3000A685EF80C0546353A00004C4B2454E851C
:100E4000EF8000654C4CEF70106C0329040248CC15
:100E5000CA85EF80C0526354A000232E2401B7043A
:100E60000080484CB3C42401A685EF80A059635389
:100E7000050044CC4C4C4840EF8080610C40AA8473
:100E80004E85EF80E060AA852685EF70D067B24579
:100E9000AA845285EF80C01D0C44EF80605FAA8554
:100EA0002685EF705066032A4402AA84AA855285DB
:100EB000EF80405563530500D284370900803349E1
:100EC0004901A6854A85EF80804B6353A000CA8400
:100ED000232C3401232C942026854D616FF00FB212
:100EE000E3D706DE8146E5B3E35907DE0147F5B3F4
:100EF000E3DC0CDE814CCDBB1C419CC15C411CC2BF
:100F00001C459CC21C4D1CC38280411122C6374423
:100F100000409305505213050440EF40B0011DCD31
:100F20009305505213050440EF409004130504400C
:100F3000EF40207F138761851E2383D64185850777
:100F400093F7F73F6388F60012239386C110B29699
:100F500088A21EA303A7018A23A8E1843244410189
:100F600073002030EFF2CFA879718545154502CA8C
:100F700002CC02CE02D002D202D402D602C602C8ED
:100F8000EF400024854537050200EF40402591479A
:100F9000FC8237140140E1473ECE4C088D471305D3
:100FA00004803ECCEF307045A147FC824C0891474D
:100FB000130504803ECEEF305044F16737440040C3
:100FC000938707203ED00C10B7070C001305044090
:100FD0003ED402D223160102EF4060660546930517
:100FE000505213050440EF40E06F930760237C8666
:100FF00089475C87680085473EC8EF30507F85454C
:1010000013050440EF40A06C239B0184239A0184C4
:101010002394018437E5000023A801841305454685
:1010200023850184EF90602E45616FF0AF9EEFF253
:101030002F9C83D4818413848184A9C003A7018554
:1010400083A7018A998F130740066379F7029307F4
:10105000F03F63E397021389C1CF26869385C18F42
:101060001385C1CFEF90800A269923969184054776
:10107000230009002385E184231004001E2003D7E8
:101080004185814593864185130EE03F1385C18FCD
:101090001388C110AE881386618512226319C700B8
:1010A000638308009AA291C11EA06FF0AF963A86A2
:1010B00005071377F73F8548E36FFEFC4296102241
:1010C000B305F5008507C20790A1C1838545D9B74F
:1010D000EFF20F8F130101BC9304800873B00480FA
:1010E0000F10000003D4C1849385C1CF22868800ED
:1010F000EF90C001930701443E94230004C073A005
:101100000480B7E50000938505448800EF90E03344
:101110002A841DE1B7E50000938585448800EF909F
:10112000C0322A8411E9B7070020A38C07000145CB
:10113000130101446FF08F8CA9452285EF90402E5A
:101140002A8D01EDB5452285EF90802D2A8D11E580
:101150002285EF90602E330DA40083070D00B96A3D
:1011600023000D003EC602D002D202D402D602D81D
:1011700002DA02DC02DE130900038149014A814BD5
:10118000130CC002914C938ACA41394B8307040067
:1011900099C36363A413B2472300FD0083070102D0
:1011A000D9D383070103C1D39307E0046306FA0090
:1011B00093073005E319FAF6930750046386F900A4
:1011C00093077005E391F9F681450810EF90D0760A
:1011D000B7E4000003A6044383A644432A8BAE8BE6
:1011E000EF60007BEF709024130C4006AA8C33054F
:1011F0008503B7EA00003704002013040400EF70F1
:1012000070292A86AE865A85DE85EF70802A03A66D
:101210008A4383A6CA43EF60A0772A8B6685AE8B8C
:10122000EF705027AE862A86DE855A85EF60400330
:1012300008C04CC00818814523044401EF90D06FCA
:101240002ECEB7E500002ACC300893850545081856
:10125000EF90600C624BF24B03A6044383A6444319
:101260005A85DE85EF60C072EF70501CAA8433058A
:101270008503EF7030222A86AE865A85DE85EF70B0
:10128000402303A68A4383A6CA43EF6060702A8A7C
:101290002685AE8AEF7010202A86AE865285D685C6
:1012A000EF50107C08C813251903134515004CC8CE
:1012B000230C340108BCADBD93051400AE8D6396BC
:1012C0008705850B9346F4FF83870D00B384DD000B
:1012D00091C7938767FD93F7D70F89EB9387EBFF50
:1012E00063E5FC028A07D6979C438287850DE9BF98
:1012F0009387F4FF636BFB0026860810EF80106174
:1013000093070144BE94238004BE6E8441B5F5DC8E
:10131000030A1400DDBF9387F4FFE368FBFE268613
:101320000818EF80B05E93070144BE94238804BE82
:10133000E9BFE1DC83091400C9BFE1D80309140047
:10134000E9B7EFE2FFE7130101BB9304800873B034
:1013500004800F10000003D4C1849385C1CF22867E
:101360008808EF80B05A930701453E94230004C0DB
:1013700073A00480B7E50000938545458808EF9089
:10138000C00C2A840DE1B7E500009385C5458808A7
:10139000EF90A00B2A8401E9238401100145130179
:1013A00001456FE0BFE502C602C802CA02CC814C0B
:1013B000014A81440149194B930BC002894A0D4CE3
:1013C000054DA54D8307040099C363512B0D0304FC
:1013D000C10079D0F1D0E3010AFC9307F07CE3DD92
:1013E00097FBA947130404FD830A01013304F402A7
:1013F0008309E100938A0AFD8306D100938909FDE0
:1014000013FB3C00938606FDB38AFA0236948306EA
:10141000F100130C8400938606FDB389F90283075B
:101420001101938707FDBE9ADD47B69963D48719EA
:10143000B965130640039385C5296808130C04FF9A
:1014400013891400EF80904C63170B00930740063C
:10145000B3E7FC0291E793070019B3E7FC0299E3B5
:10146000F5473ED293172A0013070145BA9783A781
:10147000C7BC63DA270993061A00B147668663D5AD
:10148000D70013861C008546054941A00504228526
:10149000E39A77F305098307040091C7938767FDF3
:1014A00093F7D70F85EBB309A4406302590563C5D1
:1014B0002A03E319A9F19387A9FFE3E5FDF04E861E
:1014C000AA856800EF80904493070145BE99238E5A
:1014D00009BACDBD0504C1B7630189039147E31380
:1014E000F9EEE35130EFEF807041AA8CE1BDE35B90
:1014F00030EDEF80B040AA84F1B5E35530EDEF80D8
:10150000F03F2A8AC1B56686D2869387C10FB4A3FD
:10151000854692A3A3812701D4A723828701A382B2
:1015200037012383570101499307207B938BC10F18
:10153000930600191306400693F5370081E5B3E5DD
:10154000C702ADEDB3E5D702B5C91309D9168507B2
:10155000E394FCFEB965130640039385C52968082A
:10156000EF80D03A63170B0093074006B3E7FC0205
:1015700091E71305001933E5AC0219E1F5473ED2B6
:10158000854763C047058567938707E13304F40205
:101590009307C003FD14CA940545B389F902D567C2
:1015A00093870718B384F4024E945694269423A488
:1015B0008B00F5B36686D286268981BF1309E916AA
:1015C00079B71397270074083697184385073A9917
:1015D0004DBFEFE2FFC101112A848545214502C2BA
:1015E00002C402C602C802CA02CC02CEEF30503D8D
:1015F000854537054000EF30903E8567938707C0EB
:101600007C8237150140F1473EC64C008D471305DB
:1016100005C03EC4EF30605EB70700403ECAB70762
:10162000000422C8C107376400403ECC0C08916713
:1016300013050480FC86EF30E079854513050480AE
:10164000EF30300905616FE0FFBCEFE2DFB8AA8937
:1016500037650040411113050580EF3080748545E2
:10166000214502C202C402C6EF30903585679387D8
:1016700007C0371401407C82C147130504C03EC631
:101680004C008D473EC40569EF302057930509C0D3
:10169000130504C0EF3000631545EF404011A54429
:1016A000130404C013090980054A930500402285EC
:1016B000EF3080611545EF40800F93050040228593
:1016C000EF3040601545EF40800ECA852285EF302F
:1016D000C05E63064501FD1493F4F40FF9F437146A
:1016E0000140856493850480130504C0EF30C05D1C
:1016F0001545EF40C00B93050040130504C0EF30C3
:10170000605C1545EF40A00A93850480130504C072
:10171000EF30405B1545EF4080094E855D3D41014E
:101720006FE0BFAEEFE25FAA37E500001305054F9B
:10173000B7090300370A0700B70A0010EF80F03C32
:1017400001448144130B80078509130A2A08938BEF
:101750000A4037EC0000937784071379F40FADCF7C
:10176000638C670737650040854513050580B76CB6
:101770000040EF308077138D0C80CE856A85EF3086
:10178000807D65DD9315190013850C80014693F566
:10179000E50F0969B76C0040EF30C07A1309197181
:1017A000138D0C807D19630F0900D2856A85EF3097
:1017B000807A29C1A2851305CC508504EF803020A2
:1017C00093F4F40F37650040130505808545EF302D
:1017D00060730545EF400001050493070008E31C12
:1017E000F4F637E50000A68513054553EF80301D5C
:1017F0006FE01FA1DE856A85EF30407745D5938580
:101800000A4013850C80EF3080796DBFEFE25F9E58
:1018100001112A848545214502C202C402C602C8BC
:1018200002CA02CC02CEEF30B01985453705200040
:10183000EF30F01A9307000C7C8237150140F14716
:101840003EC64C008D47130505C03EC4EF30E03A5C
:10185000B70700403ECAB707000422C8C107375483
:1018600000403ECC0C08916713050440FC86EF3025
:101870006056854513050440EF30A06505616FE0B3
:101880007F99EFE25F952A89375500404111130592
:101890000540EF3000518545214502C202C402C611
:1018A000EF3010129307000C371401407C82C147BF
:1018B000130504C03EC64C008D473EC4EF30E033F4
:1018C000130504C09305000CEF30C03F1545EF3001
:1018D000106EA544130404C08549930500042285B5
:1018E000EF30803E1545EF30906C93050004228563
:1018F000EF30403D1545EF30906B93050008228591
:10190000EF30A03B63063501FD1493F4F40FF1F4BE
:101910003714014093050008130504C0EF30C03AA6
:101920001545EF30D06893050004130504C0EF306F
:1019300060391545EF30B06793050008130504C002
:10194000EF3040381545EF3090664A85C13541018A
:101950006FE0BF8BEFE25F8737E500001305C547F7
:10196000B7090300370A0700B70A0010EF80F01923
:1019700001448144130B80078509130A2A08938BBD
:101980000A4037EC0000937784071379F40FADCF4A
:10199000638C670737550040854513050540B75CE4
:1019A0000040EF308054138D0C40CE856A85EF30B7
:1019B000805A65DD9315190013850C40014693F597
:1019C000E50F0969B75C0040EF30C0571309197182
:1019D000138D0C407D19630F0900D2856A85EF30A5
:1019E000805729C1A28513058C498504EF80207D8D
:1019F00093F4F40F37550040130505408545EF304B
:101A000060500545EF30105E050493070008E31CA5
:101A1000F4F637E50000A6851305054CEF80207A23
:101A20006FE00FFEDE856A85EF30405445D5938523
:101A30000A4013850C40EF3080566DBF01119305AD
:101A400050523725004022CE26CC4ACA4EC852C634
:101A500056C4EF30304E1DC537250040EF30704C76
:101A60009387818598231375F50F138481851377E8
:101A7000F70F15E3130750056316E5002388A152FD
:101A8000054798A37244E2445249C249324AA24AE5
:101A9000056173002030982385466390E6021307A2
:101AA000F5FA1377F70F8D4663E6E600A388A15297
:101AB0000947C1BF23800700F1B7142013870153E2
:101AC000369708A31820A946938701530507137773
:101AD000F70F18A01820E3F7E6FA814601472946D8
:101AE000B385D7008C2185062E971377F70FE399DE
:101AF000C6FEB4276398E60898339306300563164C
:101B0000D70803C95700D823A83322093369E9004D
:101B1000E433F823BC232205A2045D8D42054185F0
:101B2000D98CB7EA0000EF80C00783A58A6637EA40
:101B300000004209EF70D0158325CA669389C15011
:101B4000EF7010151359094123A4A9004A85EF80AD
:101B5000400583A58A66C204C184EF707013832593
:101B6000CA66EF70F01223A2A9002685EF806003F9
:101B700083A58A66EF70D0118325CA66EF70501175
:101B800023A0A90023000400F5BD930610056314EB
:101B9000D70803C95700D823A83322093369E900BD
:101BA000E433F823BC232205A2045D8D4205418560
:101BB000D98CB7EA0000EF70D07E83A50A6737EAB8
:101BC00000004209EF70D00C8325CA669389C1508A
:101BD000EF70100C1359094123A6A9004A85EF7034
:101BE000507C83A50A67C204C184EF70700A832504
:101BF000CA66EF70F00923A8A9002685EF70707AF5
:101C000083A50A67EF70D0088325CA66EF70500875
:101C100023AAA90085BF93062005E315D7F603C9BB
:101C20005700D823A83322093369E900E433F823A5
:101C3000BC232205A2045D8D42054185D98CB7EAFB
:101C40000000EF70107683A54A2E37EA00004209A3
:101C5000EF7010048325CA669389C150EF7050035A
:101C60001359094123ACA9004A85EF70907383A5ED
:101C70004A2EC204C184EF70B0018325CA66EF709A
:101C8000300123AEA9002685EF70B07183A54A2EDE
:101C9000EF7010008325CA66EF70807F23A0A90231
:101CA000D5B5EFE2EFD47971854513051004EF3017
:101CB0002051854513050010EF30605237053880FC
:101CC000854513050520EF306000916737240140FA
:101CD000FC828D473ECC4C08E147130504803ECE84
:101CE000EF20B071E177FC824C0891471305048026
:101CF0003ECEEF209070F167938707200C103ED006
:101D000037250040B7070C003ED402D2231601024B
:101D1000EF30F012930790157C86680085473EC827
:101D200023070100EF30A02C0546930550523725BC
:101D30000040EF30301B854537250040EF3030192B
:101D400037E5000013054556EF80205C01454561ED
:101D50006FE04FCCEFE2CFC61389C150B7E400006B
:101D60000325090083A5C42E1384C150EF7040726F
:101D7000EF8080102A8A03250900AE8A93050000AF
:101D8000EF70E05F6355052CB7E7000003A68758A6
:101D900083A6C7585285D685EF50804CEF601069F6
:101DA00083A5C42EAA8B4840EF70806EEF80C00CD4
:101DB0002A894840AE8993050000EF70405C635F5C
:101DC0000528B7E7000003A6875883A6C7584A85A9
:101DD000CE85EF50E048EF60706583A5C42E2A8C55
:101DE0000844EF70E06AEF8020092A890844AE8930
:101DF00093050000EF70A05863590526B7E700006F
:101E000003A6875883A6C7584A85CE85EF5040451C
:101E1000EF60D06137E900008325092EAA8C484481
:101E2000EF700067EF8040052A8A4844AE8A930528
:101E30000000EF70C05463510524B7E7000003A60B
:101E4000875883A6C7585285D685EF506041EF600A
:101E5000F05D8325092E2A8A0848EF706063EF80C1
:101E6000A0012A8D0848AE8D93050000EF70205127
:101E7000635B0520B7E7000003A6875883A6C75811
:101E80006A85EE85EF50C03DEF60505A8325092EDC
:101E9000AA8A4848EF70C05FEF70107E2A894848D0
:101EA000AE8993050000EF70804D6355051EB7E7BE
:101EB000000003A6875883A6C7584A85CE85EF50F1
:101EC000203AEF60B05683A5C42E2A8B084CEF70E1
:101ED000205CEF70707A2A89084CAE899305000067
:101EE000EF70E049635F051AB7E7000003A6875863
:101EF00083A6C7584A85CE85EF508036EF601053D1
:101F000083A5C42E2A89484CEF708058EF70D07694
:101F10002A8D484CAE8D93050000EF704046635902
:101F20000518B7E7000003A6875883A6C7586A8537
:101F3000EE85EF50E032EF60704F83A5C42EAA8982
:101F40000850EF70E054EF7030732A8D0850AE8D5A
:101F500093050000EF70A04263530516B7E7000039
:101F600003A6875883A6C7586A85EE85EF50402F91
:101F700013044006EF60904BB3E78C02AA8413D59C
:101F8000F7413348F500B3678C023308A84037E5C2
:101F900000001305055993D6F74133C7F600B3E7A0
:101FA0008B02158F93D5F74133C6F500B3468C02EB
:101FB0000D8EB3C78C02B3C58B02EF804020930512
:101FC000803EB367BB0293D8F74133C8F800B3E74C
:101FD000BA023308184193D6F74133C7F600B36706
:101FE000BA02158F13D5F741B3C6BA023346F500CE
:101FF000098E37E500001305855DB347BB02B34585
:10200000BA02EF80C01BB3E7840213D5F74133480F
:10201000F500B3E789023308A84037E5000013054F
:10202000856193D6F74133C7F600B3678902158FF0
:1020300093D5F74133C6F5000D8EB3C78402B3C6FE
:102040008902B3458902EF8080176FE02F9BB7E7C5
:10205000000003A6075883A647582DBBB7E700002A
:1020600003A6075883A647589DB3B7E7000003A609
:10207000075883A6475849BBB7E7000003A607588F
:1020800083A64758C9B3B7E7000003A6075883A63D
:102090004758FDB3B7E7000003A6075883A6475883
:1020A00029BDB7E7000003A6075883A6475899B58E
:1020B000B7E7000003A6075883A647588DBDB7E7CA
:1020C000000003A6075883A6475879BD23A20186BE
:1020D00023900186239401868280EFE2CF8F03A4B0
:1020E0004186854463159402B72500209384C1532B
:1020F0001306D008938505CE1385C153EF800001E8
:1021000023868408A38C8184D1376FE00F908D479C
:10211000E31CF4FE03D4818637150020B725002088
:102120001309C5FD938905CE2286938505CE130537
:10213000C5FDEF70B07D4E940347F4FFA38DE1849D
:102140008567CA97A38197D0238D918475BFEFE2ED
:102150002F8A37050400797185450505EF30200881
:10216000854513050002EF30A005370514008545AD
:1021700013050503EF20903593070010FC823714F8
:1021800001408D473ECC4C08E147130504403ECE4C
:10219000EF20B02693070020FC824C0891471305DE
:1021A00004403ECEEF207025F167375400409387FE
:1021B00007200C103ED013050480B7070C003ED456
:1021C00002D223160102EF308047930770037C860A
:1021D000680085473EC823070100EF20506105468F
:1021E0001305048093055052EF30C04F8545130509
:1021F0000480EF30C04D37E5000013054567EF80E0
:10220000C01045616FE00F81011122CE37540040AC
:10221000930550521305048026CC4ACA4EC852C6B4
:10222000EF30405121CD13050480EF30804F03A7DC
:10223000018A9384418603A9040023AEE184854783
:102240001374F50F630EF904630B090089476307E4
:10225000F90C8D476300F910EFF05FE705A0130755
:1022600070076315E4029306C0082394D1869CC0CE
:102270002390F186B7270020238087CE7244E24462
:102280005249C249324A0561730020301307800762
:10229000E316E4FE89462394D186094798C0C9BF56
:1022A000930794F893F7F70F138A81869389018631
:1022B000636FF902EFF09FE113077007B727002063
:1022C000631DE4001307C0082310EA0023A02401C3
:1022D000238087CE2390290155B709472310EA00B0
:1022E000094798C0130780072380E7CEE5B783D757
:1022F000090003560A00E3F3C7F8138717004207E3
:1023000041832390E900B7260020938606CEB69736
:1023100080A3E365C7F6EFF05FDC8DB79387018696
:102320009A2393061700C206C18296A3B7270020FE
:10233000938707CE3E9700A3138781861223E3EF8E
:10234000C6F29C33B546B387D7028D071EA38D47CF
:102350009CC02DB7938601869E2203D68186E3FF1B
:10236000C7F013871700420741839AA269BF83A76A
:10237000418685C303A7C18583A7018A998F130767
:1023800040066378F700EFD2BFE6EFF03FD46FD09E
:102390007FE882801387A18518231377F70F59C32D
:1023A000EFD27FE39389A185B717002003C7C7FD4C
:1023B00083C6B18518A11387C7FD18332A841389F2
:1023C000C7FD18B105672A9754A3854654B3014A3F
:1023D0009384C7FD9C30130BD900930A0401634713
:1023E000FA002380090005456FD03FE283475BFF79
:1023F000930539001146238AFAFE13058400EF7015
:10240000F0509305790011461305C400EF70105089
:102410009305B90011465685EF70504F050A568452
:102420005A894DBF01458280EFD2FFDA1387C186FA
:1024300083290700B75400401384C1869384044065
:102440000549114AB70502002685EF2030326304A2
:102450002501054529A81C40B3873741E374FAFEDE
:1024600037250600130505A8EFF0AFC101456FD071
:10247000DFD9EFD25FD61387C18683290700B7540F
:1024800000402A891384C18693840440114ACA8576
:102490002685EF20502C19C1054529A81C40B3877B
:1024A0003741E376FAFE37250600130505A8EFF05D
:1024B0004FBD01456FD07FD5EFD2FFD1AA89EFF094
:1024C000BFF611E59304F00F26856FD01FD4375463
:1024D0000040130504408545EF203021B704030078
:1024E00013851400EFF0FFF871DD13050440014679
:1024F00093050006EF20102537090700130529086A
:10250000EFF03FF761D113050440CE85EF20D022D4
:1025100013054908EFF0FFF555D51305044085452F
:10252000EF20B01C13851400EFF0BFF441DD13055C
:102530000440054693051006EF20D02013852400A3
:10254000EFF03FF341D18357444183578441130453
:10255000044081452285EF20901C22858545EF208F
:10256000701A13850404EFF0DFF029DD2285EF20D7
:10257000F01CAA8485452285EF20701AB1B7EFD2EE
:102580009FC5AA892E89EFF03FEA2DC53754004038
:10259000130504408545EF20501537050300050558
:1025A000EFF03FED21C913050440014693050006F5
:1025B000EF205019B704070013852408EFF07FEBD4
:1025C00015C913050440CE85EF2010171385440864
:1025D000EFF03FEA05C113050440CA85EF20D0158E
:1025E00013854408EFF0FFE811C585451305044045
:1025F000EF2050116FD07FC1EFD29FBF1305900322
:10260000EFF09FEBAA852A8437E500001305056BE0
:10261000EF70F03AC1476308F40037E50000130596
:10262000456DEF70904E81457145EFF05FF537E5F0
:10263000000013050570EF70504D6145EFF0DFE7C6
:10264000AA8537E500001305C572EF70503737E5EE
:1026500000001305C575EF70504B01456FD09FBB4F
:10266000EFD21FB9930510026D45EFF05FF16FD007
:102670007FBAEFD25FB641112A8902C202C4230693
:102680000100EFF07FDA6300050E375400401305B8
:1026900004408545EF207005B7040300138514003E
:1026A000EFF03FDD69C113050440014693050006C4
:1026B000EF205009B709070013852908EFF07FDBE9
:1026C0005DC1130504408145EF20100713854908BB
:1026D000EFF03FDA49C9130504408545EF20F000CB
:1026E00013851400EFF0FFD83DCD130504400546D7
:1026F00093051006EF20100513852400EFF07FD717
:102700003DC1130404405E281E2C370A0300814992
:10271000130B0A04B7540040A14A5A85EFF07FD545
:1027200039C12285EF2090015C00CE9788A38509EE
:10273000E39559FF814513850440EF20407E1385C2
:1027400004408545EF20007C13050A04EFF07FD29A
:1027500019C913850440EF20607E4886854513859E
:102760000440EF20C07B04839C830084B204920762
:10277000DD8C9C85320408829183DD8C9C8432053B
:10278000B7E9000092075D8C1C8691835D8C9C826A
:1027900092075D8D1C8591835D8DB707F8FFBE9410
:1027A0003E943E9523229900232489002320A900EA
:1027B000EF70203F83A5497EEF60904DAA8A2326C3
:1027C000A9002685EF70E03D83A5497EEF60504C5F
:1027D0002A8A2328A9002285EF70A03C83A5497E80
:1027E00037E40000EF60D04A8325042EAA84232A10
:1027F000A9005685EF60D049EF70202F8325042E65
:10280000232CA9005285EF60B048EF70002E83257D
:10281000042E232EA9002685EF609047EF70E02C50
:102820002320A90241016FD05F9EEFD27F9CB707A2
:1028300000803D8DEF306026B7E7000083A58766F6
:10284000B7E40000EF60D044EF700063B7E700002A
:1028500003A6876A83A6C76AEF508013EF70806C67
:10286000B7E7000083A58769EF60E04993050000A2
:102870002A84EF6030396358050083A5C469228536
:10288000EF6060482A84B7E7000083A5076A2285C5
:10289000EF60604783A4C4692A84A685EF60302E68
:1028A000634A0500A6852285EF60D0672A842285C9
:1028B0006FD05F96930500002285EF60B034E35837
:1028C00005FEA6852285EF600044CDB7EFD25F926A
:1028D000374400201304C49EB7E4000083A5042EEF
:1028E00008484111EF60C07883A5042E2A89484426
:1028F000EF600078CA85EFF05FF3504C14505850E9
:1029000032C636C43AC22A89EF704024B7E50000C7
:1029100083A5C52E2AC04A85EF609037EF7000234B
:102920008345840213084006044C3378050382472C
:102930001247A246324699EDB7E80000938808781E
:1029400037E50000A68513058578EF705007410133
:102950006FD05F8CB7E8000093888877D5B7EFD247
:102960003F89374400201304C49EB7E4000083A5C8
:10297000042E0848EF60C06F83A5042E2A894844BE
:10298000EF60006FCA85EFF05FEA6FD0BF88EFD2CB
:102990009F841387018783290700B764004013844D
:1029A0000187938404800549114AB70502002685F2
:1029B000EF20C05B63042501054529A81C40B387AF
:1029C0003741E374FAFE37250600130505A8EFE04A
:1029D000DFC701456FD07F83EFD2EFFF13870187F9
:1029E00083290700B76400402A89138401879384F0
:1029F0000480114ACA852685EF20E05519C1054596
:102A000029A81C40B3873741E376FAFE3725060034
:102A1000130505A8EFE07FC301456FD00FFFEFD28C
:102A20002FFD37640040AA8513050480EF20C050B5
:102A30003705070013054508EFF01FFA11C5854556
:102A400013050480EF20004C6FD0CFFCEFD24FFA7B
:102A5000EFF0FFF309E937F5000013054591EF703A
:102A6000D00A6FD02FFB37640040130504808545E2
:102A7000EF20A047370503000505EFF0FFF511E54E
:102A800037F500001305C593D9BF1305048001462F
:102A90009305C00EEF20004BB704070013852408F0
:102AA000EFF09FF311E537F500001305059645BFDC
:102AB00013050480F945EF20204813854408EFF002
:102AC000BFF111E537F500001305859849BF85452D
:102AD00013050480EF20004369B7EFD2CFEFAA8936
:102AE000EFF0FFEA11E541647D1422856FD0EFF12C
:102AF000B7640040138504808545EF20003F370907
:102B0000030013051900EFF03FED71DD138504801C
:102B100001469305C00EEF20E0423704070013057D
:102B20002408EFF07FEB61D113850480CE85EF2080
:102B3000A04013054408EFF03FEA55D585451385BD
:102B40000480EF20203C138504808545EF20E03988
:102B500013051900EFF05FE859D513850480054689
:102B60009305D00EEF20003E13052900EFF0DFE6BD
:102B70003DD9138504808545EF20603A130509048B
:102B8000EFF09FE52DD113850480EF20203B814598
:102B90002A8413850480EF208038138504808545BE
:102BA000EF20403613050904EFF01FE3E30D05F2B3
:102BB0002204138504804204EF2040384180498C70
:102BC00042048545138504804180EF20403531BFA4
:102BD0001E213A214111D20778815A21D18323172E
:102BE000010078827A217C800D6678831A25C1469F
:102BF00078843A2578855A250145788601470C085E
:102C00009377E7FFAE979375170083D707FF95C9B2
:102C100093F7F70F3D8DA14793150501C185060573
:102C200063D50500318D42054185FD17420593F7B7
:102C3000F70F4181F5F30507E313D7FC318141011B
:102C40008280A183C1BFEFD20FD901112A8402C8AB
:102C500002CA02CC231E0100130901019304000AD9
:102C60009309E00A2685EFF05FE789042310A900A5
:102C700093F4F40F0909E39734FFBC8022851EA06A
:102C8000BC813EA0BC825EA0BC837EA0BC841EA48E
:102C9000BC853EA4BC865EA40E20B1812EC6EFF09A
:102CA0003FF3B2452A866388A50037F50000130577
:102CB000C58DEF70C0501E20D207D1831EA00561C4
:102CC0006FD0AFD4EFD2CFD2AA84EFF05FCC09E9B6
:102CD00037F500001305859DEF7020636FD08FD30B
:102CE00037640040130504808545EF200020370538
:102CF00003000505EFF05FCE75D113050480014692
:102D00009305C00EEF2000243705070013052508A2
:102D1000EFF09FCC61D52685EFF07FD0C1B7EFD221
:102D20002FCDAA84EFF0BFC609E937F500001305DF
:102D3000C59AEF70805D6FD0EFCD3764004013050A
:102D400004808545EF20601A370503000505EFF084
:102D5000BFC875D11305048001469305C00EEF204E
:102D6000601E3705070013052508EFF0FFC661D583
:102D70002685EFF0DFCAC1B7EFD2EFC5EFF03FC154
:102D800009E5FD5426856FD04FC837640040130510
:102D900004808545EF206015B709030013851900ED
:102DA000EFF09FC379DD1305048001469305C00E43
:102DB000EF204019B704070013852408EFF0DFC1A6
:102DC00069D1130504808145EF200017138544085D
:102DD000EFF09FC05DD5130504808545EF20E0101E
:102DE00013851900EFF05FBF49DD13050480054628
:102DF0009305D00EEF20001513852900EFF0DFBDFD
:102E000049D1130504808545EF206011138509041D
:102E1000EFF09FBC3DD513050480EF202012AA845B
:102E200013850904EFF05FBB29DD13050480EF2053
:102E3000E01081452A8913050480EF20400E130518
:102E400004808545EF20000C13850904EFF0DFB8FE
:102E5000E30905F213050480EF20400E9397040167
:102E600093148900DD8CC98C854513050480EF20FF
:102E7000000B09BFEFD2CFB7B225DE2522063306FD
:102E8000C5403335C500C2073307A040C183B30630
:102E9000F7023385C702B3B7C7025D81B697B306A1
:102EA000C702A6075D8D1305057D3307C60286069A
:102EB0003336C602B387C6009306F07C63C4A6020D
:102EC0008D46B387F60233B7E6023E970587198D24
:102ED000EF60304DB7E7000083A5C72EEF604019C3
:102EE0006FD04FB37D838607D98F95871D8DCDB762
:102EF000EFD20FB03626A206338ED540B3B5C5014A
:102F00003307B0404E2683584600C205C1813308BE
:102F1000B702C208B387C503B3B5C50313D377019E
:102F2000C295A60533E365000E26130F037DC20587
:102F3000C1813308B702B387C503B3B5C5039D8309
:102F4000C29593969501D58FBE98B3B7F8009D852D
:102F50003388B7002E227622BE05C206C18233070F
:102F6000D7023386C603B3B6C603218236979317BA
:102F700087015D8EB295218733B6C5009307F07C3B
:102F80003A963307630263CFE70B95478D4EB30E36
:102F9000D7033307F702930740A213DE1E4093DEE8
:102FA000FE41935637407D87635CFF0285679387B8
:102FB000C7DA9A97B387F7021D43338367028A07FC
:102FC000135FF341FA9E729313DFF741B697B33F55
:102FD000C3017A971A8E33B3D700FE9EBE861A9726
:102FE000B386D540B307E640B3B5D5008D8F3387A0
:102FF000A602B305D841B3B6A6025583B387A7028C
:103000003385D7009317B5005D8FB387C841B3B838
:10301000F800B38515415585B307F7403337F700FE
:10302000B305B540998DB583139535015D8DB58593
:10303000EF607050B7E7000083A5C72DEF604045F3
:103040006FD04F9D135E4740935EF7418146014725
:1030500041BFEFD2EF99B7E7000083A5877EEF600D
:10306000606C930500002A84EF60C039635405004A
:1030700013040000B7E7000083A5C77E2285EF6038
:1030800020416FD02F99EFD2AF96EFF03F9C130500
:103090002003EF20207513054006EF2040713749CB
:1030A0000020130589A1EFF01FBA930489A113052D
:1030B00089A18220EFF0DFB12A8937E500001305EE
:1030C000057FEF708024AE20D220F6209A24BE2403
:1030D00003D8C40037F5000042041305C5804180C1
:1030E000EF70E00D1355C400330525413335A000C2
:1030F0006FD04F92EFD2CF8FB747002003A687A2A1
:103100000545938787A2635306007D551357F64103
:10311000398E198E1307803EB345E6027D58D4439D
:103120003366E60229473346E6029847DC276314F4
:10313000050389EFB7E700009387077837F50000AC
:1031400013054585EF70A0076FD0CF8CB7E700005F
:1031500093878777E5B791EBB7E700009387077808
:1031600037F5000013058589F1BFB7E700009387A5
:103170008777FDB7EFD2CF87B747002003A507A316
:10318000EF603022B7E7000083A5072EEF50506EA6
:103190006FD04F88EFD22F84B73701409387074015
:1031A00001112A84AE84631CF50A85450965EF2068
:1031B00020019307F0083EC295679387F7E14C0022
:1031C00022853EC423060100EF20C00BC167938710
:1031D00007063EC89307B05DFC83231C010013FA69
:1031E000140063060A000C082285EF20401493F9AE
:1031F0002400638609000C082285EF20601B13F968
:103200004400630609000C082285EF204025A188B0
:1032100089C40C082285EF20402F63060A00A145CF
:103220002285EF20003B63860900A1452285EF201F
:10323000203B63060900A1452285EF20C03B89C4DD
:10324000A1452285EF20003C22858545EF20E03511
:1032500085452285EF20E03305616FC01FFBB7571E
:103260000140E318F5F485453705100089B71307C9
:10327000007D9307007D6363B700AE8793960701D7
:10328000C1821307803E63F4E6009307803EFD177A
:10329000C2071547C1836365A7043D67130747A0AD
:1032A0000A053A951841028737370140231AF74239
:1032B000828037370140231CF74282803737014034
:1032C000231EF7428280373701402310F744828063
:1032D000375701405EBB8280375701401EBF828056
:1032E000EFC21FF137F50000130545A3EF60306D05
:1032F0006FC05FF2EFC2DFEF41118D473EC48545DD
:10330000E14761453EC6EF10B06B9307003C4C00AF
:10331000371501407C82EF10500E3715014093079E
:1033200000304C00130505C07C82EF10100D3735BE
:103330000140BD4513050540EFF0DFE58D453755EC
:103340000140EFF03FE501449944228505049305CF
:10335000C05D1374F40FEFF09FF1E31894FE37F59E
:1033600000001305C5A1EF60507A41016FC09FEACC
:10337000EFC21FE8797185453705100002CA02CCFB
:1033800002CE02D002D202D402D602C602C8EF1088
:103390001065854513050003EF1090628567FC8278
:1033A0008D473ECC4C08E147371501403ECEEF102B
:1033B000D004914737150140FC824C089147130512
:1033C00005403ECEEF107003F167938707203ED093
:1033D0000C10B7070C00375500403ED402D223161C
:1033E0000102EF20C0250546930550523755004095
:1033F000EF20402F930750147C86680085473EC815
:1034000023070100EF10B03E854537550040EF20FF
:10341000002C45616FC01FE09305505237550040A6
:10342000EF2040312DC937550040EF20802F938782
:103430005187982385461375F50F1377F70F138877
:103440005187630AD70211CF0946630FC7048D461F
:1034500013864187630CD7062380070023000600EC
:103460002DA0130700056312E5023747002023044F
:10347000A7A494A319A8130770056310E5023747A2
:103480000020A304A7A4094798A3930550523755D9
:103490000040EF20E02D7300203013070005E30605
:1034A000E5FE23800700D5B713072005631BE50061
:1034B000374700202305A7A40D4798A3238AE18658
:1034C000E9B713070005E31EE5FC65B7182293066C
:1034D000C0021377F70F9307170093F7F70F1CA29B
:1034E000B7470020938787A43E9708A31822E3FEDE
:1034F000E6F89423B745002013070005938585A3BC
:103500006392E60C943313077005639DE60AB423B7
:10351000130720056398E60AD82789669386067103
:10352000130707FD3307D702D4371305803E130E68
:103530004006938606FD294383C89701938808FDBA
:10354000B386A6023697F427B388C803938606FD90
:10355000B386C6033697F437938606FDB3866602B4
:103560003697942B938606FD3697942F98C1B83FD3
:10357000938606FDB386A602130707FDC69683C889
:10358000A701938808FDB3886802C696BA9603C758
:103590004702D4C183C66702130707FD3307A7029A
:1035A00003C55702938606FD83C77702130505FD01
:1035B000938707FD3305C503B38666022A973697BE
:1035C000BA979CC523000800230006008547DCA5A8
:1035D0006DBDEFC2FFC1371501408565130505C0FC
:1035E000EF10806E6FC01FC3EFC29FC03744004012
:1035F000AA841309048089454A85EF10104865DDC7
:10360000A6851305048037440040EF1090469304CC
:10361000048085452685EF10504665DD130504803E
:10362000EF1070451375F50F6FC0DFBEEFC25FBCC2
:1036300009E5EFF01FFA6FC0FFBD37150140856542
:10364000130505C0EF100068FDB7EFC27FBA011186
:1036500085452145EF10D03685451165EF1030388E
:10366000E977371401407C80E1473EC48A858D4765
:10367000130504C03EC2EF10405891677C808A85D4
:103680009147130504C03EC4EF10205785677C8026
:103690008A85C147130504C03EC4EF1000561305C8
:1036A00004C08565EF100062B70704013EC6B70786
:1036B0000002374400403ECAA1473ECC6C009D4703
:1036C00013050480FC8602C8EF10303585451305CC
:1036D0000480EF107038EFF0DFEF1305700BEFF0A0
:1036E000BFF00545EFF09FF437F500001305C5A6C0
:1036F000EF60B04105616FC0FFB1EFC27FAFEFF087
:103700005FED1305F009EFF03FEE1305F00F3704FE
:103710000020EFF07FED1304442108A01305F00F03
:10372000EFF09FEC08B01305F00FEFF0FFEB28A0CF
:103730000545EFF0BFEF342010300C2037F50000C6
:103740001305C5A8EF60B02718209307F00E631289
:10375000F702183093070004631DF7003820930721
:1037600000026318F70037F50000130585ABEF6022
:10377000D0396FC03FAAEFC21FA641112A89AE8A75
:10378000AA85328536C632C437F40000EF509079EE
:103790008325C4AEB7E40000EF50904F83A50430FA
:1037A000EF50104FEF20A01B8325C4AEAA894A8595
:1037B000EF50104EEF20801222468325C4AE2A8996
:1037C0003285EF50F04CEF206011B2462A8AD68540
:1037D0003685EF5030758325C4AEEF50704B83A50E
:1037E0000430EF50F04AEF2080172A84D2854A85B2
:1037F000EF50104AA285EF50B049A285EF505049D2
:103800002A84CE854E85EF50B048AA852285EF5098
:10381000804FAA84EF208028EF2060142A84268518
:10382000EF20C027EF20800BAA852285EF20E0261D
:10383000AA85EF50404DB7F7000083A507AFEF50C2
:10384000304541016FC07F9CEFC2FF9841112A8A29
:10385000368532C637F40000EF50D06C8325C4AEF5
:10386000EF501043AA89EF20800F32468325C4AE63
:103870002A893285EF50D041AA8AEF20200683257D
:10388000C4AEAA845285EF50B0402A8AEF200005CA
:103890002A845685EF20A00C2AC65285EF20200CE2
:1038A0002A8A4E85EF208003B245AA892285EF50EF
:1038B000303E2A84D2852685EF50903DCE85EF504C
:1038C000303DAA852285EF50F0652A84A6854A8579
:1038D000EF50103CA285EF20401CB7F7000083A5F5
:1038E00087AEEF50F03AB7E7000083A5C769EF5005
:1038F000804141016FC07F91EFC2FF8D37040020EE
:1039000093070400CC4B884B93844189EF6080611E
:1039100083254400AA890325040013840189EF60EC
:1039200060602A89EFF0AF8394401040CE852A8AE8
:103930004A85EFF05FE4B7E7000083A58741AA8AD4
:10394000EF50502C93876187635D05000547014563
:1039500081460146814598A3EFC01F9905456FC078
:10396000DF8A94401040CE854A8523800700EFF01F
:10397000BFEDD285EF50105BB7E7000083A48766E8
:103980003E8AB7E7000003A9C7692A84A685228575
:10399000EF50F01E6346A00AB7F7000083A4C7B03B
:1039A000B7E7000003A9C769A6852285EF509025D7
:1039B000634E0508B7E7000083A507305685B7E9D1
:1039C0000000EF50F02C83A4892E2A8BA685EF509F
:1039D000101B6353A000268BB7F7000083A507B127
:1039E000131514000581EF5090196357A006B7F71F
:1039F000000083A547B12285EF509029EF60E00ECB
:103A0000AA86420541859307200363D4A700930645
:103A1000200393970601C1871307E0FC63D4E700F6
:103A20009306E0FC139906011359094101448147AB
:103A30003E85CA860146A285EFC01F8B014505B7AA
:103A40002285CA85EF50104E2A8489B72285CA85FF
:103A5000EF50602B2A8489BFB7E7000083A5C72FEA
:103A60002285B7F40000EF50B022EF600008B7F7EE
:103A7000000083A587B1131905012285EF5050215D
:103A800083258A6613590941EF50805E2A84EF101E
:103A9000F064DA85EF50D01FAA8A2285EF10306CCF
:103AA000DA85EF50F01E83A5C4B12A8A5685EF50FF
:103AB00070151304E0FC6341050283A5892E568529
:103AC00013042003EF50B00B6348A0005685EF604D
:103AD000C00113140501418483A5C4B15285EF5080
:103AE00070129307E0FCE34505F483A5892E528507
:103AF000EF50F00893072003E34CA0F25285EF50FB
:103B0000D07E93170501C18725B7EFC26FEE83C73B
:103B100041881384418895EBB73700209387479EEF
:103B2000944723AAD188D84723A8E18885471CA0B9
:103B300093870188904303A7018A118F13063006EB
:103B4000636EE60001456FC0EFEC0547E382E7FED8
:103B500018209307F007E317F7FE11A803A7018ABF
:103B600098C3EFF07FD96DD59307F0071CA02147CC
:103B700023A6E1880545C1BF93870188904303A729
:103B8000018A0145118F130610036375E616EFC213
:103B90008FE403A7018A98C383A68187B7370020E3
:103BA0009387479E903313871600636BC7000145C8
:103BB000814601468145EFC02FF305456FC0EFE414
:103BC000920612073E97B6978C47C847144750474E
:103BD000EFF09FC72A84EFE09FD8AA852285EF5097
:103BE0007034B7E7000083A487663E8AB7E7000019
:103BF00003A9C7692A84A6852285EF504078634FC0
:103C0000A00CB7F7000083A4C7B0BE89B7E70000D7
:103C100003A9C769A6852285EF50C07E6346050CBF
:103C200083A58189228513898189EF50B02F83254F
:103C30008A66AA84EF50A074635AA000B7E7000018
:103C400083A5C7692685EF50F02DAA8483A5C9B046
:103C50002685EF50207B635A0500B7E7000083A557
:103C6000C7692685EF50200AAA84B7E7000083A51C
:103C7000874113151400232089000581EF508078B7
:103C8000E357A0F2B7F7000083A547B02285EF50B5
:103C90003000B7F7000083A587B02A842685EF504F
:103CA000207FAA852285EF500006EF501064AA8677
:103CB00042054185D9576353F500D95693970601BC
:103CC000C18729476353F700A946C2060145C1864B
:103CD00001468145EFC04FE10145CDB52285CA853A
:103CE000EF5050242A8401BF2285CA85EF50A001DD
:103CF0002A840DB7828093870188904303A7018AA5
:103D0000118F130610036364E60001458280EFC241
:103D1000AFCB03A7018A41113734002098C3EFF0DD
:103D20006FC52A89EFE0BFC39387C15003AB8700FB
:103D300083AA470003AA070283A481871304449E31
:103D40002A8C939B4400A29B83A50B014A85850482
:103D5000EF50501D92049387C187269483A90700D2
:103D6000144488C3504483A58B002A8903A5CB0043
:103D7000EFF09FADE285EF50F01AB7E7000083A4A3
:103D80008766BE8CB7E7000083ABC7692A84A68527
:103D90002285EF50C05E6342A00CB7F7000083A4F9
:103DA000C7B03E8CB7E7000083ABC769A685228504
:103DB000EF5040656349050A83A5C1892285938B2D
:103DC000C189EF50301683A58C66AA84EF50205B22
:103DD000635AA000B7E7000083A5C7692685EF50A6
:103DE0007014AA848325CCB02685EF50A061635A55
:103DF0000500B7E7000083A5C7692685EF40B070CE
:103E0000AA84B7F7000003AC47AF23A08B00B70B21
:103E1000008093CBFBFFE28533F56B01EF5020561A
:103E20006343A002E28533F55B01EF504055634CDC
:103E3000A000B7F7000083A587AF33F54B01EF5023
:103E400000546358A0028146014681450145EFC0F8
:103E5000AFC9014541016FC0AFBA2285DE85EF5081
:103E6000700C2A842DB72285DE85EF40D0692A8424
:103E700035BFB7F7000083A547B02285EF504061FA
:103E8000B7F7000083A587B02A8A2685EF504060E7
:103E9000AA855285EF403067EF503045AA8642052B
:103EA000418589576353F500895693970601C18769
:103EB00079476353F700F946C206C186CE854A8525
:103EC00036C6EF503006B7F7000083A5C7AFEF50F6
:103ED000205CB7F7000083A507B0AA844A85EF509D
:103EE000205BAA852685EF401062EF5010402A869D
:103EF000420541858957B2466353F5000956931729
:103F00000601C18779476353F70079464206814528
:103F100001454186EFC04FBDB7E70000B704008000
:103F200083A5072F93C4F4FF33F52401EF50804D90
:103F3000E341A0F2B7E7000083A5874133F5840091
:103F4000EF50404CE347A0F00145814601468145D2
:103F5000EFC08FB90545FDBDEFC28FA901118545A1
:103F60004145EF10C027930770043ECA4C089307E1
:103F7000F07C371500403ECCEF10C030054685453B
:103F800037150040EF10C063930760047C8668001B
:103F900085473EC823070100EF10600585453715AA
:103FA0000040EF10005F05616FC0CFA6411185454D
:103FB0003715004022C626C4EF1020663DC1854556
:103FC00037150040EF10E0669384018A9C4013840B
:103FD000018A85079CC083A70183850723A8F182F6
:103FE000EFC09F95EFE0AFB883A70187850723A8AF
:103FF000F18683A7C186850723A6F1869C40514799
:10400000B3F7E70291E783A78182850723A4F182B2
:104010001C401307803EB3F7E70281E70547238C76
:10402000E18A3244A24441017300203001A0B70765
:10403000EFBE37E700E0938707083CC701A0EFC257
:10404000AF98B7F400002E8A83A504BB42843A8956
:10405000B28A368BBE89AA8BEF50804383A504BBFE
:104060002A8C5285EF50C042B7F7000083A547BBAA
:104070002A8A5E85EF50C041AA8BD2856285EF50B7
:10408000606ACE85EF50006ACA85EF40D047B7E43A
:10409000000083A58441EF50A03FEF501025130589
:1040A000C55D0AA0DE855285EF40F045CE85EF5014
:1040B0006067CA85EF50006783A58441EF50403D9B
:1040C000EF50B0221305C55D2AA0D2856285EF406E
:1040D0009043CE85EF403043CA85EF40D04283A560
:1040E0008441EF50E03AEF5050201305C55D4AA0DF
:1040F000D2855E85EF500063CE85EF40D040CA8503
:10410000EF50406283A58441EF508038EF50F01D9E
:104110001305C55D6AA0DA855685EF40D03E83A5BC
:104120008441EF50E036EF50501C1305C55D0AA4E2
:10413000DA855685EF50005F83A58441EF50403506
:10414000EF50B01A1305C55D2AA49306C4001306E8
:10415000703E9307007D9305803E1A206368E60059
:104160000EA00904E31BD4FE6FC08F89E3FBE7FEBA
:104170001EA0C5BFEFC22F86EFF0CF97B7F70000A4
:1041800003A487B5B7F7000083A447B1B7E70000E1
:1041900083A5874037450020A2862686130585A77C
:1041A000EFC05F92B7F7000083A9C7B5B7F700006B
:1041B00003A907B637450020CE864A86A285130597
:1041C00045C9EFC03F9037450020CE864A86A2857C
:1041D000130505EBEFC01F8FB7E7000003A4472DC1
:1041E000B7E7000003A6C72DB7F7000083A547B6C1
:1041F00037450020A2861305C50CEFC0BF8CB7E77A
:10420000000003A9073037450020A6864A86A2850C
:104210001305852EEFC01F8B37450020A6864A86E2
:10422000A28513054550EFC0FF8937F5000013053F
:1042300085B6EF60800D6FB05FFDEFB2DFF9B7E7D5
:10424000000083A50730B744002039712A84AA866C
:1042500013060000138584A7EFC0DF951306000046
:10426000AA8937450020A286B285130545C9EFC04B
:104270007F942A891306000037450020A286B28564
:10428000130505EBEFC01F93130600002ACC37453A
:104290000020A286B2851305C50CEFC0BF9162470E
:1042A00093050000AA87CA86130841034E862E850F
:1042B000EFF0FFD840180149194A0E201375F90F85
:1042C0000509EFE0DFFA0904E31949FF9387C18A82
:1042D000984393063006050763C6E60098C321613C
:1042E0006FB0BFF21818741030104C10138584A7EB
:1042F00023A00700EFC05FC04E85EF50F0372ACCF7
:10430000125537E400002ECEEF5010376248F248C5
:1043100003270458832744582AC037F500002EC2CB
:1043200001468146130505B9EF5070694DBFEFB2E4
:104330003FEC0945EF00504BEF008070EF108044D8
:1043400037C505001305858DEF10204DB7070020F8
:1043500083A5872137F500001305C5B3EF503066FC
:104360006FB05FEBEFB2DFE8156513055555EF0051
:10437000D0431945EF00F04313059013EF00F043CD
:10438000EF003044EF00D0446FB0DFE8EFB25FE3FE
:104390007971EFF0DFF9EFF0FFFCEFF0BFDDEFF048
:1043A000BFBBEFE03FF5EFC08FC013054006EF1035
:1043B000004037240600130504A8EFD00FA9130509
:1043C00004A8EFD00FCC13052003EF10A041EFD0CD
:1043D0006FB5EFD02FD8EFE01FCBEFE0EFA1EFD01C
:1043E0005F8CEFC03FB8EFF04FA6EFF00FB1EFD00A
:1043F0001FD6EFE0FFF785471305200323A6F188BA
:10440000EF10403E894723A6F188B7F7000083A745
:1044100087BBB7EA00003ECEB7F7000083ADC7BB4D
:10442000B7E7000083A7C72E3ED27245138AC18B1F
:10443000EFF0BFE083270A00A9CF0547638BE706AB
:104440009389418C03A70900054A83A7018A630F5A
:10445000470D4DCF89466303D7109387418B98430F
:1044600083A6018A13063006998E6377D600130758
:10447000470698C3EFC0BFBB83A7C1881947F91788
:10448000636DF72A3D678A07130707B2BA979C4303
:10449000828783A7018A5147B3F7E702D5F3EFE09C
:1044A0002F9C03A7018A23A0E18C85472320FA00D3
:1044B00041BF03A7018C83A7018A998F3947E37114
:1044C000F7F8B74900201385C99EEFE08F9A9389CA
:1044D000C99E83A7890103A7C90103A50902B38760
:1044E000F7023307E7023305A502BA973E95EF407E
:1044F000607AEF10004FEF40607323A2A9021325EA
:10450000953E2384A90223200A001DBF13074006FD
:10451000B3F7E702B9F313058005EFE0AFFA03A79D
:10452000018A23A0490123A4E18C05BF138A818C51
:1045300003270A00998F2547E371F7F2EFE0DF8345
:1045400023A4A18A13058004EFE06FFD83A7018AED
:104550002320FA00894723A0F90001B703A7818C23
:10456000998F2547E37BF7EEEFE01F81138A418A9D
:10457000138B818A2320AA0003250B00B74B002050
:1045800093858BA1EFE01F8F83250B002A8C0325D9
:104590000A0013868BA1374A0020EFE07F95AA8B93
:1045A000EFE03FABB7E7000083A5072E2A8B6285BB
:1045B000EF40106EEF5060532324AAA25E85EF50A7
:1045C000C052130A8AA22322AA005A85EF50E05152
:1045D000E1679387176A2324AA003335F500230681
:1045E000AA0023A0090095BD373A002013054A9E72
:1045F000EFD05FDA6303051413074A9E8567BA9705
:10460000D42303464A9E0C3337F50000130585BCBE
:10461000EF50F03A93074A9E93094A9E014B3ED0D1
:1046200082579C336346FB008D4723A6F18831A255
:1046300083A7890003C74900370A0080134AFAFF9D
:104640003375FA00EE853ACC3ED437EC0000EF40EB
:10465000306483250C3003ADC90083AC0901EF4001
:10466000806AEF508048B7F7000083A5C7BBAA8BCC
:104670003375AA01EF40D06183250C30EF40A0686C
:10468000EF50A04692552A8C33759A01EF40506046
:1046900083A50A30EF402067EF502045A2572A8AB1
:1046A000930500003E85EF40F0551306D0026344A9
:1046B000050013060002930500006A8532D4EF401E
:1046C00070549307D00222566344050093070002FA
:1046D0009305000066853ED632D4EF40B0521307F2
:1046E000D0022256B2576344050013070002930517
:1046F00040063365BA02B7460F00938606243AC0D7
:10470000050BC109334ABA02E2452AC437F5000055
:104710001305C5C0B368DC0252C23348DC0233E77C
:10472000DB02B3C6DB02EF509029DDBD03A7018A8F
:10473000914723A6F18823A8E18A83A781880D47A2
:104740006384E71E6365F71C89466387D71E9387DA
:10475000818B9C239389818B93F7F70FE38707CC99
:10476000B707002083C7772193F7F70F99C3EF00AE
:10477000500583A5018A9307803E37F50000B3D525
:10478000F502130585C5B7040020EF50502383A51B
:10479000C18837F500001305C5C6EF50502283A528
:1047A000818837F500001305C5C9EF505021B74780
:1047B000002083A587A3938787A3D043944737F529
:1047C00000001305C5CCEF50901FEFC00F9C13865F
:1047D000018F0318A600831786000317660083164F
:1047E00046008395018F0316260037F50000130558
:1047F00045D0EF50D01CEFE0FF8FEFE02F8DEFD0D2
:104800006FD5EFC0FF8C03AB040083AB440037F9D6
:1048100000005A85DE85EF4060412A8AEF408047DC
:104820002A86AE865A85DE85EF30B048032609BC5D
:10483000832649BC93840400EF30207CEF40003F86
:1048400003AB040183AB44012A8C5A85DE85EF401B
:10485000E03D2ACCEF4000442A86AE865A85DE85AC
:10486000EF303045832649BC032609BC838C840085
:10487000EF30A078EF40803B943CAA870388840106
:104880006247D5EEB7E800009388087837F5000056
:10489000E6866286D285130545D5EF505012EFC0EB
:1048A0005FAA1386C10F83288600034866005C3226
:1048B0005822343283D5C10F302237F5000013055A
:1048C000C5D8EF50D00F2380090099BE83A7018B74
:1048D00003A7018A1D8F9D679387F752E3FFE7E4E3
:1048E0009547A1B3994791B39D4781B3EFF0EFA1ED
:1048F000E30505E4054723ACE186A1473DB3EFF0AE
:10490000AFA7E30C05E2894723A4F1883DB59146A2
:104910006384D7021D47E39CE7E283A7818785076D
:1049200023ACF186854731A0EFF0EFBC9147E3005F
:1049300005E223A4F18821BD23A4E18809BDB7E8DD
:1049400000009388887799B7B71702409843B70655
:10495000FFF041111367170098C3D84337060200D0
:10496000758FD8C39843B706F7FEFD16758F98C3A9
:104970009843B706FCFFFD16758F98C3D843B7065A
:1049800001FFFD16758FD8C39843B70600ECFD16DE
:10499000758F98C33707FF0098C723A6070202C484
:1049A00002C69843C166558F98C3B7160240056783
:1049B0009C42F18F3EC6A24785073EC4B24781E7BD
:1049C000A247E397E7FEB71702409C431397E7001F
:1049D0006356070685473EC632478547631EF70480
:1049E000B7170240D843B706C1FFFD16D8C3D84356
:1049F000D8C3D84313670740D8C3D843758FD8C3EB
:104A0000D843C166558FD8C39843B7060001558F68
:104A100098C3984393166700E3DD06FED843B716A4
:104A20000240719BD8C3D84313672700D8C32147DE
:104A3000DC42B18BE39EE7FE4101828002C669BF82
:104A4000B7160240D8421146318B938781806305A7
:104A5000C70021466308C70237177A0013070720EB
:104A600098C337170240584311839376F7003707EE
:104A70000020130707023697142398433357D700B3
:104A800098C38280D842D442416649833D8BF18EDF
:104A90001306270015CF3D47630FE6024147630F1A
:104AA000E602454781456313E6004146A1E23747E8
:104AB000024003270780418B0DC737177A00130781
:104AC00007203306C70290C3C9DD9843058349BF59
:104AD00081454946E1BF85453546C9BF81453D46CB
:104AE000F1B737173D0013070790E1BF37150240B4
:104AF00058559316F700585563DF060411833D8B14
:104B00009306170037177A00130707203357D70289
:104B100098C35455A182BD8A8DE295463307D702CA
:104B2000058398C337170240585794433D8B0507B8
:104B300033D7E60298C3984369B705456394A60046
:104B4000E546E9BF3D456396A600D1463387E602B8
:104B5000C9BF8906E5BF3D8B9306170037177A005A
:104B6000130707203357D702F1B701A097C1FF1FE2
:104B7000938141EA173100201301C14817B50000A5
:104B8000130505CE97B5FF1F9385C5471386018290
:104B900063FAC5008322050023A055001105910585
:104BA000E3EAC5FE13850182970500209385C5B70A
:104BB0006377B500232005001105E36DB5FEFD42C6
:104BC000739002BCAD4273904280B7620000938242
:104BD00082087390023097B2FFFF9382E24293E221
:104BE000320073905230EFF03FD697F2FFFF93827E
:104BF000227A73901234730020309C4513F707011A
:104C000013F8F70001C7D8413368E8008E2113F785
:104C1000F50F39C318418146854E3D4F930F8002F1
:104C200093028004214E3396DE00B3F8C500631171
:104C300016039398260033131F011343F3FF3377B2
:104C4000E300B318180133E7E800639FF70550C984
:104C50008506E39AC6FD18C11307F00F6375B70404
:104C600054412146854E3D4F930F800293028004AC
:104C7000414EB398CE0033F715016392E802131743
:104C8000260001173313EF001343F3FFB376D3006D
:104C90003317E800D98E639DF701232A1501050615
:104CA000E319C6FD54C18280E39457FA10C94DB789
:104CB000E39757FE23281501DDB708456D8D333581
:104CC000A00082800CC982804CC98280B707014055
:104CD000635A0504DC4F9356050113180501370785
:104CE000300013F6F60013580801B376E500635060
:104CF0000506639BE602930606010D46B316D60031
:104D000093C6F6FFF58F99C9135755011377F73FEF
:104D100012073317E800D98F63570504370701409E
:104D20005CCF8280DC4345BF1317B5006356070094
:104D30008D46B396C600E9B7135755011377F73F71
:104D400012073317E8001347F7FFF98F6DBF639021
:104D5000E602370601405442370700F17D17F98F0C
:104D6000758F58C2D5F1370701405CC38280131795
:104D7000B500635C07008D46B396C60093C6F6FF88
:104D8000FD8EB707000FD58FF1BF135755011207DE
:104D90003317E8001347F7FF7D8FB707000FD98F50
:104DA000D1B7EFB2EFC4B7570040938707408545AE
:104DB000631BF50037052000912181453705200050
:104DC00035296FB02FC5370540000D2981453705BE
:104DD0004000FDB7EFB2CFC1797146212A8468083F
:104DE0002EC6A524925737470F001307072433D741
:104DF000E702C204C18093F404FCC2049306C0031A
:104E0000C180B24563F4E6001307C003131607011F
:104E10004182D18C46A0162061651305056AC20641
:104E2000C182F99AC206C18216A094416369D50471
:104E30008606B3D7D7029146139707014183BA87F5
:104E40006373D700914705064206C2074182C183BA
:104E500012B05EAC1E20DA21B62593E717001EA023
:104E60001E20558FC207C18393F757BFD98F1EA04D
:104E70009A25DE25D98F1EA445616FB0AFB9EA210E
:104E800031667D16631DC5020D46B386C602B3D7D3
:104E9000D702C207C1839396470199E293E71700AF
:104EA000A166D58F9306C0123307D7029306803EC2
:104EB0003347D7020507420741831AB059BF6546F9
:104EC000B386C602B3D7D7029166C207C183D58F16
:104ED000D9B71E2189C593E717001EA18280C2079A
:104EE000C183F99BC207C183CDBF1E2189C593E74A
:104EF00007101EA18280C207C18393F7F7EFC20794
:104F0000C183C5BF1E2189C593E707201EA18280EA
:104F1000C207C18393F7F7DFC207C183C5BF1E2154
:104F200089C593E707401EA18280C207C18393F71A
:104F3000F7BFC207C183C5BF0EA982800A291375B6
:104F4000F50F828093F7E50F19C293E71500C207AA
:104F5000C1831EA982805E290A2D42055D8D6D8D5B
:104F6000220521810D8D133515008280411102C467
:104F700002C693D7C5012AC63EC4A247A205A18195
:104F800099CBB247D1073EC6B247884341016D8DE8
:104F90003335A0008280B247C181E107EDB793C5E8
:104FA000F5FFC205C1814EA98280B737004088C392
:104FB0008280B7370040C8C38280B737004088C7B7
:104FC0008280AD67373700409387A7AA1CC38280D1
:104FD000B567373700409387C7CC1CC337170240EB
:104FE0005C53898BF5DF828023A6A18C828003A786
:104FF000C18C894710216311F70214318D4763ED8D
:10500000D7003C219A0637E700E09607D58F93F743
:10501000F70F32972300F740544105479357560046
:105020003317C70089CA938707048A07B7E600E0E9
:10503000B69798C3828093870706B7E600E08A0791
:10504000B69798C30F1000008280371702405C4368
:105050009146B18B6385D700A1466382D706B71707
:105060007A00938707201CC1371602405C4237073D
:105070000020130707039183BD8BBA9794231C412B
:10508000B3D7D7005CC15442A1829D8ABA969422BC
:10509000B3D6D70014C55442AD829D8A36971823E3
:1050A000B3D7E7005CC5584239839376370013873E
:1050B000C18036971823B3D7E7021CC982805C43AE
:1050C0005843C166C983758FB7F6FF1F83A6C670A4
:1050D000BD8B89071396160163480600C546014635
:1050E0006392D702C94739A88946638FD702BD4664
:1050F000638ED702C146638ED702C54601466393CD
:10510000D700C1471DEF3747024003270780418B77
:1051100005C737177A0013070720B307F7021CC12A
:1051200021D61C41858381B701466DBF0546B54731
:10513000D1BF0146BD47F9B737173D0013070790A8
:10514000E9BFB7150240D8559316F700D85563DF6D
:10515000060411833D8B9306170037177A00130757
:1051600007203357D70218C1D455A182BD8A8DE2DA
:1051700095463307D702058318C1371702405857A1
:1051800014413D8B050733D7E60218C1184171B7AA
:1051900085456394B600E546E9BFBD456396B60014
:1051A000D1463387E602C9BF8906E5BF3D8B93062A
:1051B000170037177A00130707203357D702F1B7C4
:1051C00099C5371702401C4F5D8D08CF8280B717F5
:1051D0000240984F1345F5FF798D88CF828099C59D
:1051E000371702405C4F5D8D48CF8280B717024071
:1051F000D84F1345F5FF798DC8CF828099C53717F1
:1052000002401C4B5D8D08CB8280B7170240984B43
:105210001345F5FF798D88CB82801A218D6793879E
:105220000704B6217D8F9E21D58FD621D58FF621FB
:10523000D58F9625D58FB625D58FD625D58FF62532
:10524000D58FD98F1EA15A2DFD779387F77FF98FC0
:105250005EAD9E291EA982801E2189C593E70704A1
:105260001EA18280C207C18393F7F7FBC207C183E7
:10527000C5BF4EA582804A2582800A256D8D3335B3
:10528000A00082801E2137370140930607C0C20765
:10529000C1836300D504B7060040630CD502938632
:1052A00006406308D502B7160040138606806302E5
:1052B000C502938606C0630ED50013070740630A34
:1052C000E50037570140930607C06304D500631615
:1052D000E500BA2193F7F7F8D98F37170040630C30
:1052E000E500130707406308E50093F7F7CFFA21BD
:1052F000C207C183D98F1EA1DE215EB59E211EB5D6
:10530000B7370140138707C0630EE5009387074056
:10531000630AF500B7570140138707C06304E5002F
:105320006314F5009C251EB985475EA982801E3155
:10533000922103D82500C207C183F99BC207C1830C
:105340001EB11E3156211A2DC207C1834207418367
:105350001377C7F8518F9225F59BC2063366060175
:10536000D18F37360140130806C0C182630E050194
:1053700013060640630AC50037560140130806C0ED
:10538000630405016310C502B225DD9B03D8E50067
:10539000D18FD221ED9B93F6F6CFD18FD2253366F4
:1053A0000601D18E56A11AADFA215AB91EB18280DA
:1053B0001E3165771307F7CFC207C183BD9BC207B4
:1053C000C1831EB11E31562103D88500C207139632
:1053D0000601162DC18393F7F7FD758F9621418243
:1053E000A206558FB62142074183B3E60601920615
:1053F000D58FB7360140C207138806C0C183630E3C
:10540000050193860640630AD500B756014013880C
:1054100006C063040501631ED502B62593F7F7F7AE
:1054200003D8C5009206D58FD621C207C183920644
:1054300093F7F7FBD58FFD769386F63FF18EF22535
:10544000C207C183336606010A06D18E1396060190
:10545000418252A11AADFA211ABD1EB182801E31BD
:1054600003D88500C207C18393F7F7EFC207C18352
:105470001EB11E3156215A2DC2071396060142074E
:10548000962141831377C7F8558FB621C18393F7CF
:10549000F7DFB3E60601A206D58FB7360140C20793
:1054A000138806C04182C183630E050193860640BE
:1054B000630AD500B7560140138806C0630405018E
:1054C000631FD502FD769386F67FF58FB62503D848
:1054D000C500A206D58FD621C207C183A20693F7C5
:1054E000F7BFD58FF576FD16F18EF225C207C18381
:1054F000336606011206D18E13960601418252A12F
:105500005AADFA215ABD1EB182801A31FD77FD17BE
:10551000F98F1EB10358050256215E2D657713964B
:10552000060196211307F7CF7D8FF977A206FD17A5
:10553000558FB3F70701B62103D885004207418292
:10554000B3E60601B206D58FB7360140C20713880D
:1055500006C04183C183630E050193860640630A3A
:10556000D500B7560140138806C063040501631BCC
:10557000D500F176FD16F18ED2251A06D18E13963E
:105580000601418252A15AADFA212310E5041EB151
:1055900082801E2189C593E717001EA18280C20761
:1055A000C183F99BC207C183CDBF8357450491C511
:1055B0002167D98F2312F5048280C607C583DDBF1A
:1055C0005E2501C6DD8D4EA5828093C5F5FFFD8D5C
:1055D000DDBF1E2DC207C183DD9BDD8D0EAD828038
:1055E0001A2DFD779387F77FF98FA205CD8FC2071C
:1055F000C1831EAD82805E2DC207C183DD9BDD8D20
:105600004EAD82805A2DFD779387F77FF98FA205E3
:10561000CD8FC207C1835EAD82801E294A25ED8FE2
:105620004205418189C76D8D3335A00082800145D7
:10563000828093C5F5FFC205C1810EA98280EFA2C9
:105640003FBB1629F577FD17F58FF621DA2579711D
:10565000D58F1EA95625FD779387379FF58FD621C5
:105660002A842EC6D58F9625D58FB625D58F5EA5D3
:105670005E29C207C18393F7F7CFD98F5EA9680867
:10568000EFF0BF9CB747014093870780B245631E88
:10569000F402A2576547B387E70298419306400694
:1056A0000A07B3D7E70233D7D702B3F7D7021207F7
:1056B000920793872703B3D7D702BD8BD98FC20731
:1056C000C1831EA445616FA0FFB49257E1B791C595
:1056D0005E250967D98F5EA582805A25F977FD1767
:1056E000F98FD5BF13F7F50F85471583B395B7002D
:1056F0006319F7009307C500984301CED98D8CC379
:105700008280894693074501E318D7FE9307050178
:10571000E5B793C5F5FFF98DDDB793F5F51F4EA1FC
:1057200082804A211375F51F82800A216D8D3335E1
:10573000A000828013F7F50F85461583B397B60056
:105740006311D7025A25F98F1A2101454207418377
:1057500081CB0545A181B315B5006D8F3335E000D0
:10576000828089466314D7001A29F1BF5A29E1BF04
:10577000A1818547B397B70093C7F7FFC207C183DD
:105780001EA18280B707002083A7872137177A00E0
:1057900013070720B3D7E70293F7F70F2389F18C9C
:1057A0001307803EB387E7022398F18C8280B7F716
:1057B00000E0D8438146799BD8C303C7218D3306C7
:1057C000A70290CBD4CB98431367070198C39843A3
:1057D0001367170298C3D843058B75DF9843799BED
:1057E00098C38280B7F700E0D8438146799BD8C33D
:1057F00003D7018D3306A70290CBD4CB9843136710
:10580000070198C398431367170298C3D843058BC1
:1058100075DF9843799B98C38280EFA27F9D2A848D
:105820001165011185451105EFF09F99930700203F
:105830007C82371501408D473EC44C00E14713057B
:1058400005803EC6EFF06FBB22C837440140B70762
:1058500008000C08130504803ECC02CA231E010078
:10586000EFF0FFDD854513050480EFF05FE605618D
:105870006FA05F9AEFA23F96B7440140AE8932898C
:10588000014493840480634524014A856FA0FF97F7
:10589000930500042685EFF05FE97DD9B387890081
:1058A0008385070026850504C205C181EFF0FFE668
:1058B000D9BF138701811C43B746002093864672E7
:1058C0003E95636BD500B76600209386060063E5BE
:1058D000A60008C33E858280FD57EDBF011122CC92
:1058E000370400809347F4FF3717493F06CEE98F0E
:1058F000130787FD635DF7023707807F63C9E70001
:10590000AA85EF303062F2406244056182802C004B
:10591000552B0D8985476304F5028947B245630B12
:10592000F5020DC522450546EF10E03BE9BF9305A2
:105930000000EF00301CF240624405618280B245F5
:1059400022450546EF10203A218D75BF2245EF0014
:10595000701A55BF2245EF00F019218D6DB7011166
:1059600022CC370400809347F4FF3717493F06CE17
:10597000E98F130787FD635DF7023707807F63C9EF
:10598000E700AA85EF30105AF24062440561828038
:105990002C000D2B0D8985476305F5028947B2451B
:1059A000630BF50205C52245EF00D014218DE9BF38
:1059B000014693050000EF100033F2406244056198
:1059C0008280B2452245EF00F0127DBF2245054698
:1059D000EF10603155BF22450546EF10C030218DD4
:1059E00065B75D71A2C4A6C2CAC052DE56DC86C6C7
:1059F0002A84AE848D229387418103A90700FD5735
:105A00002A8AAE8A6301F9022286A6862285A685A5
:105A1000EF30001E09E9014681462285A685EF2068
:105A20006052634C0500B64026445285D6859644A4
:105A30000649725AE25A6161828085473EC497974F
:105A400000009387273A3EC602D422CC26CE22C835
:105A500026CA63070902014681463285B685EF10E2
:105A600030732AD02ED28947631EF900EF40806937
:105A7000930710021CC1A25781EF025A925A65B7D0
:105A800002D002D22800EF10C0386DD1A257F5D74E
:105A9000EF404067A2571CC1CDB749AC397122DC39
:105AA00026DA4AD806DE2A84EF0000779387418100
:105AB0008443FD572A89638EF400A2852285EF3046
:105AC000107F01E9930500002285EF30B013634990
:105AD0000500F25062544A85D254425921618280B5
