:040000006F3090606D
:1000040000000000000000002E3600003036000022
:1000140000000000063E0000000000000000000098
:10002400063E0000063E0000000000000000000044
:10003400063E000000000000063E00000000000034
:10004400063E0000063E0000063E0000063E00009C
:10005400063E0000063E0000063E0000063E00008C
:10006400063E0000063E0000063E0000063E00007C
:10007400063E0000063E0000063E0000063E00006C
:10008400063E0000063E0000063E0000063E00005C
:10009400063E0000063E0000063E0000063E00004C
:1000A400063E0000B2290000063E0000063E0000A5
:1000B400163B000028050000E2030000063E000095
:1000C400063E0000063E0000063E0000063E00001C
:1000D400063E0000063E0000183400003E2B0000DF
:1000E400063E0000063E000000000000063E000040
:1000F400063E0000063E0000063E0000063E0000EC
:1001040000000000063E0000063E0000063E00001F
:10011400063E0000063E0000063E0000063E0000CB
:10012400063E0000063E0000063E0000063E0000BB
:10013400063E000000000000000000000000000077
:10014400000000000000000000000000063E000067
:10015400000000000000000000000000063E000057
:10016400063E0000063E0000063E0000063E00007B
:10017400063E0000063E0000063E0000063E00006B
:10018400063E0000063E0000063E0000063E00005B
:10019400063E0000063E0000063E0000063E00004B
:1001A400000000000000000000000000000000004B
:0C01B4000000000000000000000000003F
:1001C000397101436EC619A0397141536AC866CAB4
:1001D00062CC5ECE19A0397101535AD056D252D496
:1001E0004ED64AD826DA22DC06DE3301614082820E
:1001F00041114AC026C222C406C68282B24D4101C4
:10020000024D924C224CB24B4101024B924A224A7F
:10021000B2494101024992442244B24041018280E4
:100220003D432A876373C3029377F700BDEFADE5C3
:10023000937606FF3D8ABA960CC34CC30CC74CC7D5
:100240004107E36BD7FE11E28280B306C3408A0602
:100250009702000096966780A6002307B700A306C2
:10026000B7002306B700A305B7002305B700A30412
:10027000B7002304B700A303B7002303B700A3020A
:10028000B7002302B700A301B7002301B700A30002
:10029000B7002300B700828093F5F50F9396850091
:1002A000D58D93960501D58D61B79396270097025A
:1002B000000096968682E78086FA9680C1171D8F89
:1002C0003E96E374C3F8A5B73367B500FD530D8BB5
:1002D00079E7B7877F7F9387F7F710419441B3722F
:1002E000F6003363F600BE92B3E262006395720CCF
:1002F0006318D6065041D441B372F6003363F6005A
:10030000BE92B3E262006396720A631BD604104584
:100310009445B372F6003363F600BE92B3E2620016
:10032000639F7208631ED6025045D445B372F6002F
:100330003363F600BE92B3E2620063987208631101
:10034000D60210499449B372F6003363F600BE92A8
:10035000B3E26200639172085105D105E30FD6F64E
:100360001317060193970601631CF7001357060144
:1003700093D706013305F7409375F50F91E9828015
:100380004183C1833305F7409375F50F91E1828076
:100390001377F70F93F7F70F3305F740828010219B
:1003A0009421050585056313D60075FA3305D640FB
:1003B000828011059105E314D6FE01458280210556
:1003C000A105E31ED6FC014582803105B105E31885
:1003D000D6FC014582804105C105E312D6FC0145EA
:1003E0008280411122C637140040854513050480E0
:1003F000EF40201E3DC1854513050480EF40E01EFF
:1004000083C681E00947637AD704938781E09433F8
:100410000D476394E604DC331307A0108146B387CD
:10042000E7021387C1CFBA9788236308D50203C8B0
:1004300087003E86014705066318E800850693F6A7
:10044000F60F93872704D5B7834516020507137760
:10045000F70F8505A300B602F9BF324441017300CE
:100460002030EFF2FFD80111AA842E841145854572
:1004700002CA02CC231E010002C602C8EF40C0021D
:10048000E082371400404C0813050480E484231DE7
:100490000100231B0100EF4080060546854513053A
:1004A0000480EF40E0119307E0127C8689475C8767
:1004B000680085473EC8EF303064854513050480E9
:1004C000EF40800EB7E700E0116723A2E710056157
:1004D00091B3EFF2FFD137650000130585B4EF400B
:1004E000C058EF10D0200545EF1090247D4681457F
:1004F000138581E035331306A01081451385C1CFE4
:10050000053337650000130545B6EF400056096511
:100510009305F0081305F570A9370545E5B9EFF225
:100520003FCDEF10A032FDB1411122C6370400408B
:10053000854513050440EF40C00951CD854513059D
:100540000440EF40800A938681E09022894763F45B
:10055000C70890328D45DC326313B6041307A01030
:100560003387E7029387C1CF8146BA9703C8070054
:100570006303D80688273E86014709A883451602EB
:1005800005071377F70F8505A300B6020506E317E5
:10059000E5FE850693F6F60F93872704D1BFA545A0
:1005A000631BB6021305A010B387A7029385C1CFC2
:1005B00003C36600138781E081461385C1CF094ECE
:1005C0008D4E130FA010AE9783C52702850523819A
:1005D000B7026316D30032444101730020307C33EC
:1005E0006374FE041C276391D7055C278145B3879C
:1005F000E703AA9783C207006388B20283CF87000C
:100600003E88014609A88348180205061376F60FAE
:100610008508A30018030508E397CFFE850593F529
:10062000F50F93872704C9BF850693F6F60F1907C0
:100630004DB719E5EFF2DFBB2E85EF10D01CD9BE08
:10064000828001E9EFF2DFBA1385B1E0EF10B0204C
:10065000D1B61305B00F828011E9EFF27FB993850F
:1006600081CE1385C1E0EF10F04A6DB61305B00FCF
:10067000828001EDEFF2DFB7938781E0C82309475D
:10068000B8A38945EF10305971B61305B00F8280B9
:1006900009EDEFF2FFB503C5C1E0AE8613060040D9
:1006A0009385818EEF10F04AB5B61305B00F8280A6
:1006B0005821A1466305D700FC256395D700A147C3
:1006C0001CA282809D466304D7006394D7009D4797
:1006D000C5BF8D466304D7006394D7008D47CDB75F
:1006E000A5466304D7006394D700A547D1BFFD5743
:1006F000C1BF01E9EFF2DFAF03C5C1E0EF10105554
:1007000011BE1305B00F828019E9EFF27FAEAE87FC
:10071000B2853E851386818EEF10504AE5BC1305E5
:10072000B00F82801DEDEFF2BFAC328813052004BC
:100730003305A8021308A010368E93088E03138386
:10074000C1CFBE863A8633880503AA9842951A958A
:10075000729503457502B38508019A95EF1090577D
:1007600055BC1305B00F8280EFF29FA5AA843765B0
:1007700000000111130585D2EF40202FFD47B387FC
:10078000F402138981E00144938C81CE138C818E15
:10079000938A1700CA9A3E9913054006EF30D07F1E
:1007A00005041374F40F214533158500EF30D07E16
:1007B00081452685BD3D8149814D194D130A40066D
:1007C0002685413519E5850D93FDFD0F6364BD1147
:1007D00081498509C209054593D90901EF30D07BCC
:1007E000E39049FF9547E3F987FAD94521A8376592
:1007F0000000130585D4EF4000169547E3FE87F807
:10080000930550042E850561D5BAB769000013859C
:1008100049D5EF4080251545EF3010783765000049
:10082000130585D5EF4020139305E10126858D350D
:10083000AA852DE99387818E03CD57008147B8871C
:1008400063E5E70413054AD1EF4020225686E2858E
:10085000138581CEB13D834519003765000013052E
:1008600085D6EF40400F37650000130585D7EF4070
:10087000800EEA852685B53DAA8529E12AC613851D
:1008800049D5EF40801EB245B5BF3307FC000C23AD
:1008900013850DD33EC6EF40000CB2478507C20753
:1008A000C18371BF37650000130585D4EF40A00AEE
:1008B0009547E3F387EE93057004A9B73765000009
:1008C000130585D4EF4020099547E3F787EC93059E
:1008D000B00F0DBF37650000130545D8EF40A007E6
:1008E00026859D3BAA85E31405F0376A00008149FF
:1008F000494DD28DB3873C018C2313050AD385095A
:10090000EF406005E398A9FF376A000013054AD15C
:10091000EF40A01537650000130585D3EF40A00315
:100920002685813BAA85E30205EE376500001305A5
:1009300085D4EF4040029547E3F087E693056004D5
:10094000D1B5EFF25F89FD47B307F502138A81E065
:100950002A8BAE89814401441389818E3E9A834754
:10096000390003472900A207BA976354F41EB3075E
:100970008900943309476397E6021307A010338771
:10098000E902D42311469387C1CFBA97637AD60080
:1009900090A3B30789009C233E9442044180C1B7D1
:1009A00094A3C5BF1146E398C6FE6384D41AD0331E
:1009B0008D466312D618F023854663E9C614FC33CE
:1009C0006366F7146398D702130720041306A01078
:1009D0003386C9029386C1CF5A853387E4023297A2
:1009E00036973CA383454A00014781462686EF108F
:1009F000F03819A0E38AE7FCB30789009C231307AA
:100A0000A0103387E9023E949307200413031002D9
:100A1000034E290042049388C1CF4180814601459D
:100A2000B387F402914E154FBA97130750083388D5
:100A30006402C6973387E9023A9833078900103376
:100A4000630DD609637BC4090C232E9442044180B4
:100A5000631DE60750332C23834F4700220693F390
:100A6000F5007E96E2054206E18583423700418229
:100A700063D805027823B38FA700B305A800238F9E
:100A8000EF009827A1058605C69505070505A384EF
:100A90007F00A3865F00B2A198A71375F50F71BF01
:100AA0003387D700A3037702A30557023307D80083
:100AB00041070607469712AB03C76702850693F600
:100AC000F60F05072383E7028DBFE31866F61027AC
:100AD00078332206518FDAA38DB785476394F602E7
:100AE000930720041306A010B387F4021387C1CF25
:100AF0003386C902B297BA97B8236315D7007D57DA
:100B00002380E704850493F4F40F91BD9307200438
:100B10009306A010B387F4021387C1CFB386D9021E
:100B2000B697BA977D57B8A3B30789009C233E9424
:100B300042044180C1BF93072004B384F4029307A9
:100B4000A010B389F902FD57A6999384C1CFCE9422
:100B5000BCA001456FF06FEB83C6818E954763950E
:100B6000F6181387818E14338547639FF616342356
:100B7000A547639BF616343399476397F616930699
:100B800020041308A010330805031386C1CF0111F8
:100B900022CE26CC4ACA4EC852C656C4B386D50207
:100BA0005AC25EC091470143814E014F014E938866
:100BB000C1CF1144C2963696835346000148930F25
:100BC000000793040008930200092149C149130A50
:100BD0000002854A63E07704A147631AF30E930786
:100BE00020041307A010B387F5023307E502BA9774
:100BF000B385F80083C7050481E785472380F504A2
:100C00007244E2445249C249324AA24A124B824BD0
:100C100005618280B306F70094228507C20793FB23
:100C2000C60013FB3600C18393F6060F638D8B025B
:100C3000638B2B0763950B026393560263010802D3
:100C4000B386EE03369342031353030163090E0088
:100C50008346C60389E6230E5603A30EC603DA971E
:100C6000C207C18385BF638BF60363EBDF00E5FA40
:100C7000B306F70003C80600611813381800C5B79B
:100C800063899600E39D56FCB306F70083CE060009
:100C9000F9B7B306F70003CE0600D1B7B306F700E5
:100CA00003CF06006DBF638C3601E39A46FBE30871
:100CB00008FAB306F7009422A30FD6024DB7E3005B
:100CC00008FAB306F7009422230FD60249BF930710
:100CD0002004B387F5029305A0103305B502AA9747
:100CE000C6972380070429BF8280EFF26FCD930A55
:100CF000A010B38A55039387C1CF4111AA8C2E8BC4
:100D0000328D014A9389C1CFD6978423D68B3EC6B4
:100D1000CDC8B247130920048023058C1374F40F47
:100D200033092403B3077901CE97DE23B5CF938728
:100D30004A003E994E99B76D0000B7670000A28542
:100D4000138547C1EF303041EA854A879386818E0B
:100D500022866685050AEF10A07B137AFA0FAA8512
:100D600021E91309200433092403814D5E994E992A
:100D700029A89387818EEE978C23850D130507D3C1
:100D8000C20DEF30503D93DD0D01835749003767A9
:100D90000000E3E0FDFE37650000130545D1EF30AC
:100DA000D04CA2855A854D3BFD1493F4F40F8DB7BA
:100DB00013858DD4EF30303A9547E3F047F993042B
:100DC0008004268541016FF06FC31307A01033051F
:100DD000E5029387818EB033BC2322069386C1CF70
:100DE0003E969385818E814709431148254E954E45
:100DF0003695854863C4C700014582803387F50076
:100E0000034F07001433FA97C207C183639A660041
:100E1000582363F5E80023001501E9BF18A1D9BFE5
:100E2000E39A06FD5833E317C7FD3387F500143303
:100E3000E38206FDE3D0C7FC034F0700FA97C20721
:100E4000C183E394D6FF3423139F8601135F8F4140
:100E5000E35D0FFCBD8A14B53433034F470054B52E
:100E600054337823A20678AD1825FA9636A90507DB
:100E700018A565BFEFF24FB52A8437650000411110
:100E80001305C5C3AE8AEF30503E37650000130529
:100E900085C4EF30502C7D473307E402938781E00F
:100EA000BA97C8331D37631B051437650000130557
:100EB00045D5EF30903B9387818EFC23138A81E0E8
:100EC0009384818E95CF376500001305C5C5EF303B
:100ED0009028F020D6852285EFF01F83AA858149CE
:100EE00063130514376B0000982093970901C183A1
:100EF00063E2E71237650000130545D1EF30F036A5
:100F0000938781CEFC27938981CE9DCF37650000E2
:100F1000130505C7EF30302403C6E900D6852285C6
:100F2000EFF08FFEAA85014B631F0510B76B000021
:100F3000982093170B01C18363EEE70E376500001D
:100F4000130545D1EF30703283C7F9009DCF376567
:100F50000000130545C8EF30102003C6F900D68500
:100F60002285EFF06FFAAA85014B631E050EB76B61
:100F70000000982093170B01C18363EDE70C3765E0
:100F80000000130545D1EF30502E83C709019DCFD6
:100F900037650000130585C9EF30F01B03C6090152
:100FA000D6852285EFF04FF6AA858149631D050C91
:100FB000376B0000982093970901C18363ECE70A1F
:100FC00037650000130545D1EF30302A3765000042
:100FD0001305C5CAEF303018154BB76B00009306E8
:100FE000E1001386818ED6852285EF100066AA89DE
:100FF000631D05120149B76A000045A8AA89AA85A0
:1010000037650000130585D4EF30F0144E8541019B
:101010006FF00F9FB38734018C2313050BD3850921
:10102000EF307013D1B537650000130585D4EF306C
:101030009012F9B5B38764018C2313850BD3050B8C
:10104000EF307011F5B537650000130585D4EF302A
:101050009010DDBDB38764018C2313850BD3050B82
:10106000EF30700F39B737650000130585D4EF30C6
:10107000900E21BFB38734018C2313050BD3850950
:10108000EF30700D05BF37650000130585D4EF30D4
:10109000900C2DBFB38724018C23050913850AD337
:1010A0004209EF30500B135909013C87E364F9FE04
:1010B00037650000130545D1EF30301BFD47B307FE
:1010C000F402B4201147D297636FD704F4A37D498B
:1010D0003309240337650000A2851305C5CB854479
:1010E000914A529903466900014AEF30D00683477E
:1010F0006900E3ED97F083454900A14613F6F40F2C
:101100002285EF10805101CDFD14050A1545C2045A
:10111000137AFA0FEF304068C18063E24A03850416
:10112000C204C180E9B7F8A35DB77D1BCE851385E6
:101130008BD4137BFB0FEF301002E3120BEA930901
:10114000E00FE9B5EFF22F891C224111B3D7B74068
:10115000858B99E71304E00F228541016FF0EF8A38
:10116000FD44B3079502938481E02E862E89740096
:10117000AA89BE94CC20EF10E0432A8409C9AA852D
:1011800037650000130585B7EF30E07CF1B71C87A9
:10119000858BE9D3CC20C1464A864E85EF10E044CA
:1011A0002A841DE1A94ACC2074004A864E85EF109E
:1011B00060402A8A05C1AA8537650000130505BA73
:1011C000EF306079528449BFAA8537650000130566
:1011D000C5B85DBF1C8705041374F40F858B81C7E8
:1011E000E31354FD85BFA947E306F4F61C86858BFF
:1011F000B5F337650000CA85130545BBEF30A07510
:10120000594499BFEFE23FFD1C224111B3D7B740CB
:10121000858B99E71304E00F228541016FE0FFFE03
:10122000FD47B307F502938481E02E86AE8991468F
:101230002A8A938A81E0BE94CC20EF10003E2A8453
:1012400015E52689130B50068345490074004E8628
:101250005285EF102036AA8415C1AA853765000093
:101260001305C5BDEF30206F26847DB7AA8537658D
:101270000000130585BCEF30006E79BF0545EF30E7
:10128000A0511C8705041374F40FC18B9DEFE31D5F
:1012900064FBFD47B307FA02D1464E865285338977
:1012A000FA0083454900AD4AEF10203483454900D8
:1012B00074004E865285EF10E02F2A8401CDAA8556
:1012C00037650000130505BF7DB793074006E3129D
:1012D000F4FC89B71C87850493F4F40FC18B99CF74
:1012E000E39654FD1C86858B95D737650000CE8527
:1012F000130545C0EF302066554439BFA947E38B3D
:10130000F4F0CDB7EFE2DFEEFD473307F502938748
:1013100081E03284B2862E86BA97CC23EF108029E2
:1013200011E91C3013F7270011E713F54700333597
:10133000A00005056FE01FEEEFE29FE82A89376500
:1013400000004111130505CEAE89328CB68AEF300C
:10135000C0719947B387F9027D47138A81E0294418
:10136000938481E05E8BB76C00003307E902AD0720
:10137000BA973E9A938581CE5285EF00B079AA85BF
:1013800055E9376A00000144138D81CEC94CD28BD8
:10139000B3078D008C2313050AD30504EF30A05B3F
:1013A000E31894FF376A000013054AD1EF30E06B71
:1013B00037650000130545CFEF30206B1944FD471A
:1013C00033848902A94C376D0000B307F9023E94BB
:1013D00026944C242834890593F5F50FEF10A003CB
:1013E000AA8535E55C241545194489072300FC00CE
:1013F000EF30803A37650000130545D0EF30E066E6
:10140000FD4733848902294CEA8CB76D0000B3078D
:10141000F9023E94269428349385818E9306E10048
:1014200013060040EF00F072AA8571E10144138CAD
:10143000818EA1A07D1413858CD41374F40FEF302A
:1014400080510DF81305500441016FE03FDBFD1C96
:1014500013058DD493FCFC0FEF30E04FE39B0CF6AB
:1014600013056004D5B7B3078C008C2305041385DE
:101470000BD34204EF30204E41803C87E365F4FEFD
:1014800013054AD1EF30605E56869385818E1385B1
:1014900081CE034A5C00EFF0AFA183C50A00376537
:1014A0000000130585D6EF30004B376500001305AB
:1014B00085D1EF30805B9947B389F902FD47294414
:1014C0003309F902CA99CE9437690000A834D2854D
:1014D000EF00D07735D97D14AA851374F40F130566
:1014E00089D4EF3040477DF013059004B1BF7D1CD7
:1014F00013858DD4137CFC0FEF30E045E31D0CF019
:1015000091B7EFE2FFCB130D2004338DA5039305B4
:10151000A0103289368C8549094B8D4B3305B502B5
:101520006A95138DC1CF2A9D034AED0383441D04A0
:10153000834AFD03D28D33844D411374F40F834CE1
:101540001D0463FABA0133849441333480002301CB
:101550008D046FE0BFCA639F3D016286930530052D
:101560004A85EF30A03233948D0005E1850D93FD5F
:10157000FD0FD1B763906D036286930590034A8592
:10158000EF30C03065D53394890033449401A30013
:101590008D04E9BFE39C7DFD628693057004C5B7A9
:1015A000EFE21FC5B2881308A01036869306200408
:1015B000338805031387C1CF41119387C1CFB30689
:1015C000D602C29636970348C703834617046302C0
:1015D00008040347D703D4865886094778879306BB
:1015E000A010130720043307E602B386D50236970E
:1015F000BA9703C7070485476310F7021307E10092
:101600007400C685EF005074AA873E8541016FE0E3
:101610007FC054860547D9B79306F00F8147E3167C
:10162000D7FE3C8778008146EFF0CF8FF1BFEFE225
:10163000BFB9AA8937650000130505C3AE8A328A8F
:10164000EF30A04237650000130585C4EF30A030AD
:10165000D6854E85EFF0EFAE2A8B6311051E3765F8
:101660000000130545D5EF3040409387818EFC2361
:101670001384818E95CB376500001305C5C5EF3007
:10168000802D7020D2854E85EFF00F88AA846314D8
:101690000510376900001C2063E4F40E3765000074
:1016A000130545D1EF30603C5286D6854E85EFF06C
:1016B000CFE3938781CEFC27938481CE95CB37658A
:1016C0000000130505C7EF300029F024D2854E85B0
:1016D000EFF08F832A896313050EB76B00001C207F
:1016E0006363F90C37650000130545D1EF30E0372F
:1016F000FC3495CB37650000130545C8EF30A025B5
:10170000F034D2854E85EFF02F802A89631B050CBB
:10171000B76B00001C20636BF90A376500001305E6
:1017200045D1EF3080349C288DCB37650000130500
:1017300085C9EF3040229028D2854E85EFE0DFFC4E
:10174000AA8479E1376900001C2063E4F40A376554
:101750000000130545D1EF3040311309A010338943
:101760002A039384C1CF0144130C2004854CB38B0E
:10177000240183C70B006361F40A5A856FE05FA8F8
:10178000B30794008C23130509D38504EF30A01C04
:1017900093F4F40F09B7AA8537650000130585D4C3
:1017A000EF30601B11B7B30724018C2313850BD3D3
:1017B0000509EF30401A1379F90F15B7AA85376577
:1017C0000000130585D4EF3000191DB7B3072401BD
:1017D0008C2313850BD30509EF30E0171379F90F2C
:1017E00015BFAA8537650000130585D4EF30A01614
:1017F0001DBFB30794008C23130509D38504EF3074
:10180000801593F4F40F89B7AA8537650000130596
:1018100085D4EF30401491B7B3078403CA97A697D5
:10182000B82363199701A3800704A2865286D68540
:101830004E85BD3305041374F40F25BFAA853765A3
:101840000000130585D4EF30001105BFEFE25F976C
:1018500003C581E00111138481E0EF00C072854768
:10186000AA846315F510376500008145130545D935
:10187000EF30600E014504A0A3020400EFE0DFEEAC
:10188000AA8469E91C300D47639EE70237650000B2
:101890001305C5DAEF30200C50204C300145413B98
:1018A0002A8937650000130545DCEF30C00A63194B
:1018B000090237650000130545D5EF30001B8D4741
:1018C0001CA025A825476391E70437650000130590
:1018D000C5DDEF3040084C200145EFF0AFD9C9B766
:1018E000D944630C990037650000CA85130585D477
:1018F000EF30600689471CA0CA841820894763E43A
:10190000E70A05616FE09F8F37650000130545DF2B
:10191000EF3060041C302147638EE7001307F00F9F
:101920006385E7021D47639DE700376500001305E7
:1019300005E129A037650000130545E0EF30A0015F
:1019400037650000130585E28DBF3765000013057C
:10195000C5E1EDB7D947E302F5FAAA85376500007E
:10196000130545E3EF20307F894799BF59F5376567
:1019700000008145130545E5EF20F07D7D460349D4
:1019800054008145138581E0EFE09F891305A01085
:101990003309A9021385C1CF1306A01081454A95CA
:1019A000EFE01F8899BF1C300D470349540063992D
:1019B000E718930BA010B30B79031387C1CF93875C
:1019C000C1CF3EC28149938C818E5E973AC05EC47E
:1019D0003A8C83470C00E3F6F9F293072004B387AF
:1019E000F9022247014AB38AE7001247BA9A1387DD
:1019F000AB01BA973EC679A8B38D4A0103C72D0241
:101A000083C6ED016365D7083377D702B24703C5B4
:101A10009D009306E101B38547011386818E9247AD
:101A2000BE952381ED02EF00B026AA843DED014D65
:101A300031A8B387AC018C23050DB767000013856F
:101A400007D3420DEF203071135D0D01BC87E362B7
:101A5000FDFE37650000130545D1EF30000103C7D7
:101A60002A0085476311F702B4876686CE854A85CA
:101A7000EFF03FA983C72A0499C75020CE86CA85B4
:101A80000145EFF0FFB1AC876685EF00504F050AC6
:101A9000137AFA0F83C78A00E360FAF6D947E38224
:101AA000F4E6850993F9F90F2DB7594DE30BA5E538
:101AB0001307E002E31DE5FC376500001305C5E6EA
:101AC000EF20B07A83C59D00482093E50508EF001C
:101AD000101A03471C00238D0D00A5460507137738
:101AE000F70FA300EC00E3F4E6FA7D468145138589
:101AF00081E0EFE0EFF20145EFE01FC7AA8405EDBA
:101B000083C59D00482093E50508EF005016024567
:101B100085471306A0108145A3000C001CA0A3025A
:101B20000400EFE0EFEF5020CA850145EFF03FB031
:101B3000AA848D4701C5E38CA4F589471CA081BF09
:101B40002547E390E7DC9305A0103309B902138A17
:101B5000C1CF9389C1CF4A9A83472A020347EA013A
:101B600063F0E706814A138D818E7C20E3FBFAD86F
:101B70009947B387FA028D46A297F8336312D73498
:101B80009427639FE63283CDC700130CA010014A4F
:101B9000338C8D03B387890162C03EC292479C2378
:101BA0006370FA32930C2004B30C9A03194B8247EA
:101BB0000149338B6A03B38BFC00CE9B229BD5A4D7
:101BC000B3F7E70228206909138B818E2301FA02FB
:101BD000D52E2830112103459A009306E101138682
:101BE000818EB3852901EF00B00AAA8425FD8345C3
:101BF0000B0037650000130585E7A30EB10001490E
:101C0000EF207055B76B0000376C0000B76C000018
:101C1000376D0000B76D00007C20E375F9F4130BFD
:101C20001900137AFB0F1306D101D2850145EFF09D
:101C30006FD15947AA846315E50419453309A902F0
:101C40000547B31767010347D10193C7F7FF130691
:101C5000A010F98FA30EF1008145B3072401C82716
:101C60009307A0101D093305F5024E95EFE04FDBF9
:101C70001946814533052401EFE08FDA528969BFA7
:101C800013054006EF2050311306D101D2850145DE
:101C9000EFF04FD75547AA846311E50C9947B30776
:101CA000F9020547A297F8B32147B8B72386470141
:101CB0009944B30499021386818ED2850145EFF0D1
:101CC0006FE4B7670000AA85A294A8A41385C7E8AB
:101CD000EF2070488834FD24A824FD2C3C3099C79F
:101CE000370700501C3393F7B70F1CB3B7670000DA
:101CF0001385C7E9EF2070579947B307F902CA85E2
:101D000001459386870013869700A29622963EC0CF
:101D1000EFF08FE2AA84824745ED330BF4000347CE
:101D20008B008D46631DD704CA851385CDEA3AC062
:101D3000EF2070420346BB008345CB000145EFF026
:101D40001F8FAA8402471DF937650000A303EB002B
:101D5000130585EDEF20705115B78346D101054776
:101D6000B317670193C7F7FFF58FA30EF1009947EB
:101D7000B307F902A297FC33E392E7F015BFCA85D7
:101D800013850BEEEF20303D83478B002147638B9B
:101D9000E702636DF7001D476389E70219453309C0
:101DA000A9028D472299A303F900C9BD2547638E77
:101DB000E7001307F00F13050DF1E391E7FEEF20A5
:101DC000D04AE9BF13058CEFDDBF13854CF0C5BFCA
:101DD000A2970947F8B3B7670000CA851385C7F112
:101DE000EF20703761BD33872B0183472702742FA3
:101DF00063E6D70AB3F7D70203459B002301F70236
:101E0000D1220345AB00C92A3C3099C7370700509F
:101E10001C3393F7B70F1CB3B3872B019305AC01A9
:101E2000E6958837CA959306E1011386818ECE9593
:101E3000EF000066AA8449E1814739A83307FD0015
:101E40000C233EC4B7670000138507D3EF20B030E2
:101E5000A2478507C207C183B887E3E1E7FE37657C
:101E60000000130545D1EF20504003C72B008547E4
:101E70006312F702B4876A86D2856E85EFF06FE849
:101E800083C72B0481CB0346BB00D286EE85014578
:101E9000EFF00FF1AC876A85EF00700E050913793A
:101EA000F90F83C78B00E360F9F4D9476389F40025
:101EB000050A137AFA0FDDB1D947E311F5FED944CB
:101EC000850A93FAFA0F55B1370700501C2393F790
:101ED000F70B1CA31C3393F7B70F1CB37E3BC20751
:101EE000C18393F7F7BFC207C1837EBB8280EFE255
:101EF0002FB003A78180B74795089387074009450E
:101F00006300F702B7E7B8059387078005456309C3
:101F1000F700B777DC02938707C06315F700014528
:101F2000EF20405C85450565EF2040546FE08FAEA3
:101F300085476315F504B7070050130700F898A309
:101F4000982362076187E35D07FEA3800700A381F2
:101F5000070013078004D8B7138781E298CF13874F
:101F600081E6D8CFA38D0702238F0702130790F8CD
:101F700098A37D57F8A30D47B8A38280B7070050F8
:101F8000194798A38280370700507C23858B85C32F
:101F900085477CA354338147858A99CA854709C9F7
:101FA00089476306F50018338547058B11C38947B8
:101FB0003E858280B7070050C83305811345150060
:101FC00005898280370700503C331375F50793F776
:101FD0000708C98F3CB3828085476317F500EFE29D
:101FE0002FA1DD356FE00FA3B707005098231367CB
:101FF000070498A398331367470098B3FA3B136715
:102000000740FABB8280EFE2AF9E2A8401455D3F24
:10201000653D854763EC8700370700501C3393E725
:1020200027001CB311E82D45EF200077370700503B
:102030001C3393F7D70F1CB30945EF20E075B707A2
:102040000050F823058B11C7D833058B19C30547FA
:10205000F8A36FE02F9C370700505C33858B85CB4E
:10206000EFE20F991C33858B91E72A84A13708A0F2
:1020700011E19D37B70700509833014513671700EA
:1020800098B3FA3B13674700FABB6FE0AF98594526
:102090008280EFE2EF92B7070050A38DB7022A8A41
:1020A000328D238FB7021359450081443704005005
:1020B000894A394BA949A54B0D4CB54C230C440317
:1020C00023035401930D803E7C20898B91EBFD1DF1
:1020D000C20D054593DD0D01EF20A068E3960DFECE
:1020E000230C04027C20898B81E71305E00F85A86F
:1020F0007C3093F70704B5EB7C3093F7F70F13F5BB
:10210000F700630665076312350563050D06FD5785
:102110006303FD007D1DFD1493F4F40F5145EF2082
:1021200040647C20858B91CB1305800CEF2060638D
:102130001C30858BB9C385477CA0850493F4F40FCC
:10214000E39E34F71305000219A8630C79016305B7
:1021500099018547E31BF9F871D1136505026FE01A
:10216000EF899D8BE39A87FF55BF0145CDBF1305CE
:10217000E002F5B71305A002DDB75545CDB7EFE294
:10218000AF84AA89B284130540062E89EF20605DD2
:1021900099C02390040037040050A147896A5EBCAF
:1021A00013860A7181451305000DE535631005148A
:1021B0009147A30DF402230FF402938781E6E223F3
:1021C000138B81E66306040E6304090E8387070000
:1021D00063C20706CE8BC20993D90901370A0050A2
:1021E000938A0A7113054006EF20A057DE876373B8
:1021F0003401A287231EFA0281470357CA03639161
:10220000E7108345EA0356864145613565E183471A
:10221000EA0393C74700230FFA028357CA031D8CB2
:102220004204418091C48357CA039A20BA979EA062
:1022300055F8BDA8370A0050938A0A71138B81E2C2
:10224000FD1913054006EF20C0518345BA03568699
:10225000130500093D3D59E98347BA0393C7470079
:10226000A30DFA0203578A00A2876376870083577B
:102270008A00C207C1831D8C4204418081C49A2018
:102280003E979AA0014793160701C1826392D70631
:102290003E9983578A00C207C18399C783578A0032
:1022A000B3F7F90091E351FCB7070050239E0702F2
:1022B00013054006EF20E04AB7070050DE3F130544
:1022C0000009C207C18391E34145096613060671FF
:1022D0009145C13301ED370700505E3FC207C1830E
:1022E00091C71E27C207C18391C35D456FD05FF1BF
:1022F000B306EB009022B306E900050790A261B790
:10230000834609003307FB008507C20714A30509AC
:10231000C183E5B5EFD2DFED13848182A147184078
:102320001CA1938781E698C35840AA844111D8C361
:1023300008211306E1002E89993509E983477900C0
:102340007A209CA03C8763F3E7005D4541016FD094
:102350007FECEFD25FE813870182B28910435843C4
:10236000938781E6411190C3D8C336862A8A2E8985
:1023700036C6313529E1B2461387018272238E2297
:102380005D4563EAC502034639008345290093870A
:1023900081E622064D8EB28563F3C900CE851043D7
:1023A00058438EA290C3D8C39A223686CA85FAA310
:1023B0005285EFF0DFDC41016FD03FE5EFD2BFE1A6
:1023C0009387018303AA070083A94700138481E64A
:1023D0004111B28413E90530232044011306E100C2
:1023E000A685AA8A2322340123112401EFF03FD9C4
:1023F00005E19C201306E10023204401232234013F
:10240000A68556857C87231124017EA0EFF03FD757
:1024100041016FD09FDFEFD2BFDD1387818314436B
:102420005843938781E694C3AEA3AE84D8C30146D4
:102430008145EFF0DFD42A8419E52685EFF09FB8B7
:102440001545EF20603522856FD0DFDCEFD25FDAF3
:102450001387018414435843938781E694C3AEA342
:10246000D8C301468145EFF09FD16FD0BFDAEFD2DC
:102470003FD81387818114435843938781E6D8C39B
:10248000CEA394C301468145EFF07FCF6FD09FD894
:10249000EFD21FD62E848C21411132891365050994
:1024A000014636C6EFF0FFBEAA84B24605E1B70783
:1024B00000509227938581E24206418292A24A858A
:1024C000EF20403E1C2093C747001CA026854101F9
:1024D0006FD05FD4EFD2DFD1AA8441112E8413854F
:1024E00081E6B285368636C6EF20C03BB246B707D6
:1024F00000500146D6BF0C2013E50401EFF07FB970
:1025000009E51C2093C747001CA041016FD09FD054
:102510000DE9EFD2FFCD13888184AE87B68583267F
:1025200008003E8523A4D1E683264800938781E6F0
:10253000D4C3D2A316233A86F6A3EFF05FC46FD0BC
:102540007FCD1305B00F82801DE5EFD27FCA1388BF
:102550000185AE87B685832608003E8523A4D1E693
:1025600083264800938781E6D4C3D2A33A86EFF04E
:102570001FC16FD03FCA1305B00F82800DE9EFD2A3
:102580003FC7138881852E8583250800A20623A4D2
:10259000B1E683254800938781E6D98ECCC3D2A3C8
:1025A000B6A301468145EFF09FBD6FD0BFC61305AE
:1025B000B00F828005E9EFD2BFC313870187AE87D2
:1025C000B685144358433E8523A4D1E6938781E61C
:1025D0004111D8C3D2A31306E100EFF05FBA410165
:1025E0006FD05FC31305B00F82800DE5EFD25FC0DF
:1025F000138701862E850C43584323A4B1E69387A5
:1026000081E6D8C3D2A3B6A301468145EFF03FB718
:102610006FD05FC01305B00F82800DE5EFD25FBDB4
:10262000138781872E850C43584323A4B1E69387F3
:1026300081E6D8C3D2A3B6A301468145EFF03FB4EB
:102640006FD05FBD1305B00F828029E1EFD2BFB814
:10265000938781869843DC433284AE8923A4E1E6E4
:102660003686138981E6A2854E85B6842322F90039
:10267000EFF0FFB011E91C202686A2859EA04E85B2
:102680002313F900EFF0BFAF6FD03FB81305B00FC1
:102690008280EFD2FFB50111130790F9135886001D
:1026A000230CE10013F7F50F9378F60FB287230E92
:1026B000C1001375F7001376F80093D685003295A4
:1026C00013F6F800329513F6F60032951386018959
:1026D000032306002E8E230DB100930513000CC2B8
:1026E000A30CD100A30D0101A30EA1002946138460
:1026F0000189636FB60037560040035606802AC032
:102700003765000032C2130585097286EF20A024C8
:10271000E1679387076A81453755004019483E872E
:10272000835605801306058093F606088DCE3C0877
:10273000AE979C2385055EA2BA87E39305FFB75643
:10274000004003D706801377070419E3FD17F5FB54
:102750000C40A94763E2B702376500001305051175
:10276000EF20601F11A8FD17C5FF1222376500007A
:102770001305850EEF20201E05616FD0BFA9EFD293
:102780009FA5138781882E840C43AA84938981880E
:1027900085050CC313074006636CB702376500005C
:1027A0002286130545F3EF20001B0149A28A414A06
:1027B000376B0000D68763738A00C147C207C183A5
:1027C0006348F90237650000130545D1EF20E02981
:1027D000854763E8870203A70900954763E3E70697
:1027E00037650000A2851305C5F5EF20C01691A836
:1027F000B38724018C2313054BF50509EF20A015A1
:1028000055BF26948347F4FF9DEF37090020130935
:1028100009088347090095C7370400209384418045
:102820001304240892200E200145EFF09FE6922029
:102830000E2037650000130545F823000900EF203E
:1028400080116FD09F9C29466378F60037650000A1
:10285000BE85130545FB51BF03C93400B820C03005
:1028600022093369E900D8201385C1882204598CD4
:10287000184183C914009384C1889305170093D924
:1028800069400CC193F91900636BB600376500000D
:102890002287CA864E86130585FDEF20C00BB70739
:1028A000002083C50708944093840708638A350392
:1028B000A94763E9D700376500004E861305450038
:1028C000EF2060092286CA854E85EFF09FDCB707AE
:1028D000002023912709238034012392818095B71A
:1028E000638E0904B707002083D5270803D64180EB
:1028F0003307B9404207B307C440C2074187C187C5
:1029000063560700338725414207418763D6070096
:10291000B3078640C207C187130580026344E50000
:10292000635EF500A947E3EFD7F83765000022871B
:10293000CA8613050503EF20000269B7A947E3E241
:10294000D7F037650000A2864A86CE851305850636
:10295000EF206000FDB5EFD2BF8905650111854507
:1029600013050580EF10703237340140930770046F
:102970003ECA4C089307F07C130504C03ECCEF1010
:10298000103805468545130504C0EF1070439307C2
:1029900090027C86680085473EC823070100EF103F
:1029A000B0158545130504C0EF10104005616FD0C8
:1029B0007F86411122C6373401408545130504C086
:1029C00026C4EF1010412DC58545130504C0EF1036
:1029D000D041138741891C4385071CC32947B3F79E
:1029E000E702B9E70395818CF945EF10C025138400
:1029F00081899384818C08B003952400F945EF10F8
:102A000080249387018D28A003952700F945EF10B6
:102A1000802328B00395018DF945EF10C022AA86C6
:102A200048A00306340083052400030514007D201C
:102A30003244A244410173002030EFD26FFB797120
:102A400085452145EF107024854537050400EF10BA
:102A5000B02593070040FC82371401408D473ECCDF
:102A60004C08E147130504C03ECEEF10407B85675C
:102A700093870780FC824C0893078004130504C0E9
:102A80003ECEEF10C079B7770500375400409387EA
:102A900087280C103ED013050480B7070C003ED4E5
:102AA00002D223160102EF101035930770137C86B3
:102AB000680085473EC823070100EF10F003054674
:102AC0001305048093055052EF10503D85451305C2
:102AD0000480EF10503B45616FD0CFF3EFD24FF140
:102AE00005472387E18AA387018A9387818A130791
:102AF000600698A31375F50F88B393F5F50FACA393
:102B00001376F60FB0B393F6F60FD4A33D8ABD8AC1
:102B10003696BD892E963D892A96D0B38C2337549C
:102B2000004013050480EF10D03A130504800546D9
:102B300093057072EF10903601456FD0AFED4111E3
:102B400022C6375400409305505213050480EF10FD
:102B5000F03939C113050480EF1030389387618A4A
:102B600098231375F50F9376F70F138716001377D5
:102B7000F70F98A31387018A369708A398239546E1
:102B800063F4E60023800700375500409305505258
:102B900013050580EF1050393754004093057072CB
:102BA00013050480EF1090340DCD9387F18A98239C
:102BB000954605071377F70F98A3982363EAE60471
:102BC00098239387818ABA978C2313050480EF108A
:102BD0005030375500409305707213050580EF1093
:102BE000B034375400409305003613050480EF10CD
:102BF000F02F19C913050480EF10302E930500360D
:102C000013050480EF10503232444101730020302C
:102C100001469305707213050480EF103028238756
:102C2000018A45BFEFD2CFDC2A86371501409305D4
:102C30000004130505C0EF10206B0545EF1070323E
:102C40006FD04FDDEFD2CFDA2A86371501409305DA
:102C50000008130505C0EF1020690545EF1070301E
:102C60006FD04FDBEFD2CFD8411185452145EF1012
:102C7000D001D1473EC6371501408D474C003EC4B8
:102C8000130505C09307000C7C82EF1040590545E1
:102C9000EFF05FF90545EFF0FFFA41016FD08FD7F4
:102CA000EFD20FD50545EFF0FFF90545EFF09FF79F
:102CB0000145EFF03FF90145EFF0DFF66FD08FD51A
:102CC000EFD20FD30145EFF0FFF70545EFF09FF589
:102CD0000545EFF03FF76FD0EFD3EFD2CFCF2A8982
:102CE000014493090008A14433D589403375250177
:102CF0003335A000EFF01FF50545EFF0BFF20145B9
:102D00000504EFF03FF2E31194FE0545EFF09FF16B
:102D10000145EFF03FF16FD04FCFEFD26FCD2A8456
:102D2000EFF01FF813058007EFF03FFB0145EFF0D0
:102D3000DFFA2285EFF07FFAEFF09FF86FD08FCDAA
:102D4000EFD20FCBAE842A84EFF09FF513058007F6
:102D5000EFF0BFF813050004EFF03FF8A2946316FC
:102D60009400EFF0FFF56FD0EFCA08200504EFF0F4
:102D7000DFF6F5B7EFD2CFC71365050B2E84EFF062
:102D8000DFF91355440013650501EFF01FF91375C2
:102D9000F400EFF09FF86FD0EFC7EFD26FC59384C8
:102DA00081EA0144214922858145EFF0BFFC0504F9
:102DB0002685930500081374F40FEFF07FF89384D1
:102DC0000408E31224FF6FD0EFC4938781EA93864F
:102DD0000740130600080147B385E700238005007C
:102DE0000507E31BC7FE93870708E396D7FE82809B
:102DF000EFD20FC0EFF01FE71305E00AEFF0FFF18D
:102E00001305500DEFF07FF113050008EFF0FFF010
:102E10001305800AEFF07FF01305F003EFF0FFEFEA
:102E20001305300DEFF07FEF0145EFF01FEF1305B5
:102E30000004EFF09FEE1305100AEFF01FEE1305EC
:102E4000800CEFF09FED1305A00DEFF01FED49454D
:102E5000EFF0BFEC13051008EFF03FEC1305F00C9A
:102E6000EFF0BFEB1305900DEFF03FEB1305100FE4
:102E7000EFF0BFEA1305B00DEFF03FEA13050003D2
:102E8000EFF0BFE91305400AEFF03FE91305600AD0
:102E9000EFF0BFE81305D008EFF03FE85145EFF041
:102EA000DFE71305F00AEFF05FE7EFF01FF2EFF056
:102EB000DFEE6FD02FB6AE96854E2A96130FF00731
:102EC000930FF003138381EA63DBD50413F77500D6
:102ED0003397EE0013D835401347F7FF6207C2055A
:102EE0001E086187AA87C1811A9825A093980701B7
:102EF00093D80801636B1F0163E9BF00C29703CE3B
:102F00000700337EC7012380C70193871800C207DB
:102F1000C187E3CDC7FC8505C205C18575B7828031
:102F2000EFD26FAB41112E843289B6893AC6AA849A
:102F3000EFF07FF8A1479386F9FFB345F4023247DB
:102F4000B3C6F6022E83B367F40213868700635478
:102F500004001383F5FF420313530341634304004A
:102F60003E869318060193D80841A14FB38F1F41A5
:102F70000148138F81EA130400F89309F0079D4379
:102F800063CB0607330E0301930E1E0093977E005A
:102F9000A697B3020903FA97131A7E000146B38A73
:102FA0008E0291A0B305960063EDB90263E0C303FE
:102FB000B305560033855701BA9552958C21034BC2
:102FC0000500B3951501B3E565010CA163EBD301D1
:102FD000B3055600BA958C218823B3D5F541C98D28
:102FE0008CA3050685079375F60FE3ED25FB050811
:102FF0001378F80F71B741016FD02FA1EFD24F9F17
:10300000A147639EF6000116196712061307474D84
:103010003297C1462146EFF0BFF06FD0AF9F99477E
:10302000E39DF6FE01163306D602196713078729BA
:10303000A14632971946C5B7EFD2EF994111AA8937
:103040002E8AB28AB68401447D5B29496365940067
:1030500041016FD08F9B3305E402B3878440FD1795
:1030600005464E9542054185FD176392670333D6A9
:10307000CA02BA86D2853AC605041374F40F3376B1
:10308000260313060603EFF07FF73247C1B7330676
:103090002603D9BFEFD24F93B6842A89AE893284F2
:1030A0003A8ABA86634D06001306B002EFF01FF5A8
:1030B0008147FD5BA94A63EB97006FD06F941306BD
:1030C000D002EFF0BFF333048040DDB7138B17005D
:1030D00033054B03B387F440FD1785464A954205F7
:1030E0004185FD17639F7701B356D402CE8533F631
:1030F0005603D28613060603EFF05FF09377FB0FBB
:103100005DBFB3865603F1BFEFD28F8B196A4111B1
:10311000AA8A2E8B3289B68901448147930B000C11
:10312000130A4A12196C3307F9000306070001E677
:1031300041016FD0AF8C93841700C204C1806342F9
:103140000602330554014205CE86DA854185508456
:10315000A30401004E94EFF07FEA42044180A68769
:10316000D9B7330799009376060E03070700639FCC
:103170007601508455DF890793940701C180D88474
:1031800023050100814C930D500261A09376060F38
:103190009305000E6395B602508459DBD8841387DB
:1031A0002700420741834A970307070051D38D0741
:1031B00093940701C1805885A3050100E1B7937678
:1031C000860F9305000FE39CB6F8508435D3D8845E
:1031D00013872700420741834A970307070029DB2B
:1031E000588513873700420741834A970307070032
:1031F00021D3910793940701C180D885230601004C
:1032000051B72C00EFD04F8C19C9850CC20C93DC40
:103210000C01338DBC0333054D011C21FDF3A14787
:103220006390F9023305540113075D00420552977C
:10323000C1464146DA854185EFF09FCE410431BF5A
:103240009947E39EF9F033055401420513072C35E5
:10325000A1461946DA854185EFF09FCC1904F5BDEA
:10326000EFC21FF979718545154502CA02CC02CE1D
:1032700002D002D202D402D602C602C8EF10E02069
:10328000854537050200EF1020229147FC82371454
:1032900001408D473ECC4C08E147130504803ECEEB
:1032A000EF00F077A147FC824C089147130504809A
:1032B0003ECEEF00D076F167374400409387072079
:1032C0003ED00C10B7070C00130504403ED402D2C8
:1032D00023160102EF102032130504400546930522
:1032E0005052EF10A03B0146130504409305707245
:1032F000EF10C03A854513050440EF10C03893071E
:1033000060137C86680085473EC823070100EF00F4
:10331000B07E45616FC01FF0630F050E8147130734
:10332000E01FB306F5008386060093950701C1816F
:1033300091C68507E397E7FE9305D01F93078008A2
:1033400073B007800F1000001387618B1386418BC9
:10335000162312221A239387418B6370D602962379
:103360007D17158F420741839386150063CFE608CA
:103370009307800873A00780828096231307F71FA6
:10338000CDB796233308C50003480800BA96050652
:10339000238006019623850693F6F61F96A39316BF
:1033A0000601C182E3EFB6FC962335463744004060
:1033B000BA9690A29623930500081305044085064B
:1033C00093F6F61F96A396233697A94614A39A233D
:1033D00005071377F71F9AA3EF10A03001E9054600
:1033E0009305707213050440EF10402B37450040E1
:1033F00005469305707213050540EF10202A9307C8
:10340000800873A007806FC0FFE0EFC27FDE014637
:103410001387814A69B782805D7122DE374400409C
:103420002ADA2ED8130504409305505286C696C456
:103430009AC29EC026DC32D636D43AD23ED042CE94
:1034400046CC72CA76C87AC67EC4EF10202A31C133
:1034500013050440EF1060281387018B1386218B1E
:1034600016230E228506C20593F6F61FC181137539
:10347000F50F9387812A638BD5081223B29788A30F
:1034800016A3374500409305505213050540EF1031
:10349000A029B74400409305707213850440EF10D3
:1034A000E02421C11384618B03D7418B1E20C20706
:1034B000C1836387E7061A209387814ABA978C23D2
:1034C00013850440EF10E0201E20850793F7F71FB7
:1034D0001EA0374500409305707213050540EF109C
:1034E000A0247254B640A64216438643E254525575
:1034F000C2553256A256125782577248E248524E6F
:10350000C24E324FA24F6161730020301623B6972E
:1035100088A30EA31E22850793F7F71F1EA295B757
:1035200001469305707213850440EF10201755B7BC
:1035300001E501473A858280EDDD9307800873B08D
:1035400007800F1000009387018B1386218B9A232D
:1035500012229E239386218B636EC7009A22998F35
:10356000C207C1830547636BF7009307800873A008
:103570000780C1B79A2293870720D5B792220147C7
:10358000420641829388812A3543294E3388C800F8
:10359000834E0800130816001378F81F6318D30130
:1035A000B38E080183CE0E00630BDE0105074207D0
:1035B0001316080141834182E39AE7FC7DB7930724
:1035C0000020E304F6FA9E2201430147C207C183AB
:1035D000130E0002FD15A54E6390C702890793F7ED
:1035E000F71F9EA29307800873A00780E30303F4EC
:1035F0003A95230005003DBF3388F80003480800D2
:103600001378F80F630108026305C8016303D8014A
:103610000543635AB700130F17002A9723000701C9
:1036200013170F014183850793F7F71F75B701A0A3
:10363000B707EFBE37E700E0938707083CC701A054
:10364000EFC29FB80945EF00D04AEF00E072EF10DB
:10365000E00E716513050520EF10601783A58180CA
:1036600037750000130545ACEF10E02EEF00101F7A
:10367000AA8537750000130545ADEF10C02DEFF09A
:103680008FADEFF0FFBDEFF0AFF6EFF00FBBF5241D
:10369000A521EFC01FE4377600009946130646AE19
:1036A00081450145EFF05FA6377600009946130685
:1036B00086AFC1450145EFF03FA53776000099463A
:1036C0001306C6B0930580020145EFF0FFA3377AD9
:1036D0000000B77A0000377B00001389818C938744
:1036E000C18B03A7418994436305D70098C3EFC0FA
:1036F0001FE303A7418995679387F7E163FFE70E0F
:1037000083C7A18B1307F0071384A18B6387E70E90
:1037100089EB37750000130545B1EFF0FFBF854712
:103720001CA003A7418995679387F75E63FEE700B6
:1037300018208547631AF70037750000130585B117
:10374000EFF09FBD89471CA003A741899967938724
:10375000F7DB63FAE702182089476316F70237752B
:103760000000130545B2EFF03FBB377500001305AD
:1037700005B3EFF07FBA37750000130505B4EFF01D
:10378000BFB98D471CA003A7418999679387F75854
:1037900063FEE70018208D47631AF70037750000B5
:1037A0001305C5B4EFF05FB791471CA003A741898B
:1037B0009D679387F7D563FEE70018209147631A4A
:1037C000F70037750000130585B7EFF0FFB4954794
:1037D0001CA003A741899D679387F75263FFE70009
:1037E00018209547631BF70037750000130585B94E
:1037F000EFF09FB29307F0071CA09305001013850C
:10380000816AEFF0FFD2239CA18A6315051283A77A
:103810004189130C4006B3F78703E39207EC039644
:10382000818C19479146A1454945EFF0FF80031669
:10383000290019479146A14513050003EFF0CFFF7A
:103840000346490019478546A14513054005EFF099
:10385000AFFE0396018D19479146E1454945EFF0CA
:10386000AFFD1384018D0316240019479146E145ED
:1038700013050003EFF04FFC502019478546E14542
:1038800013054005EFF04FFB03A641899307803EE7
:1038900019473356F60299469305000201451384F1
:1038A0008189EFF06FF999461306E0029305000253
:1038B00013054002EFF08FF403A6418919478546AE
:1038C00033568603930500021305A002EFF0CFF6EE
:1038D0009946130630079305000213050003EFF025
:1038E000EFF103061400194789469305800301454B
:1038F000EFF04FFA03062400194789469305800329
:103900006145EFF02FF90306340019478946930506
:10391000800313050003EFF0EFF703064400194797
:1039200089469305800313058004EFF0AFF6EFF0AE
:10393000CFC675B3A14613060008930500030145E1
:10394000EFF06FD799461386816A9305000301450E
:10395000EFF08FFB9385816A1305CABAEF00B07F41
:103960009385CABB1385816AEF10E010E30705E871
:1039700013050BBDEF10600F49B5EFC27F8759717A
:1039800085451305C020EF00503085450545EF0003
:10399000F02D85450545EF0030313165EF00901B76
:1039A000371401408D44130504802C08E48402D0B0
:1039B000EF00F006130504C02C08E484EF00300685
:1039C000930700302C08130504C0FC84930780047F
:1039D000B70402403ED0EF009004138584006125B7
:1039E000372401409307C444BEC29387018CBEC4F0
:1039F00093070008BECC93070010BECE930700408B
:103A0000BED093070002138584001149BED2CC00BA
:103A10008967BED482C6CAC882CA82D6EF00607BDC
:103A2000854513858400EF00407E130504409521F1
:103A300085473ED43ED64C10B7070E001305044010
:103A40003ED802D202DA230C210361219D460546AD
:103A500085451305044025239D46094681451305E8
:103A60000440312B9D460D46A54513050440012B0E
:103A70009D461146A1451305044011239D6513057C
:103A80000440552B8145130504406D2B85451305D6
:103A900004405D21130504404D299304044026850C
:103AA000552975FD13050440552913050440854526
:103AB000A5299307703E3EC66C0093077004370536
:103AC00000403EC8EF00B023854537050040EF00B9
:103AD000D0310546854537050040EF00702E93072D
:103AE000C0127C82480085473EC423030100EF00DA
:103AF000B00065616FC00FF2EFC28FEF3725014054
:103B00008545130505408521854537050040EF00B3
:103B1000B0296FC02FF0411185453705004022C6FE
:103B200026C4EF00102B63030510854537050040C0
:103B3000EF00B02B9387018C9E231387018CAD0778
:103B4000C207C1831396070141866346060E856648
:103B50006344D6009387F6FF2394F18C3E2393842D
:103B6000818CED17C207C183139607014186634616
:103B7000060C85666344D6009387F6FFBEA05E23DD
:103B80009117C207C1831396070141866349060A4C
:103B900085666344D6009387F6FF2398F18C7E23D5
:103BA0001384018DAD07C207C18393960701C186B7
:103BB00063C90608056763C4E6009307F7FF371576
:103BC000014093050020130505C03EA0092F83C6C0
:103BD000618013371500D8A0054693876180638301
:103BE000C6000147D8B0014789E61307F5FF133730
:103BF000170088A33715014093050010130505C071
:103C0000F8A0F12D83C671801337150058A0054622
:103C1000938771806383C600014758B0014789E6E6
:103C20001307F5FF1337170078A088A33244A24486
:103C3000410173002030814705B7814781B7814733
:103C4000A9BF8147ADBFAA87634005040567130577
:103C5000200363DDE70293870780130707800D8F3A
:103C60003385B74063C9F500B306B040014563DF53
:103C7000D7003385B700930720033305F50233459A
:103C8000E5026205618582801305E0FC8280B7173A
:103C900002409843B706FFF041111367170098C31D
:103CA000D84337060200758FD8C39843B706F7FE8E
:103CB000FD16758F98C39843B706FCFFFD16758FE8
:103CC00098C3D843B70601FFFD16758FD8C33707D1
:103CD0009F0098C702C402C69843C166558F98C317
:103CE000B716024005679C42F18F3EC6A247850782
:103CF0003EC4B24781E7A247E397E7FEB717024009
:103D00009C431397E7006357070685473EC6324733
:103D10008547631FF704B7170240D843B706C1FFB2
:103D2000FD16D8C3D843D8C3D84313670740D8C3B8
:103D3000D843758FD8C3D843B7063D00558FD8C335
:103D40009843B7060001558F98C3984393166700B0
:103D5000E3DD06FED843B7160240719BD8C3D843B3
:103D600013672700D8C32147DC42B18BE39EE7FEEF
:103D70004101828002C661BFB7160240DC42114693
:103D8000B18B138781806385C70021466388C70292
:103D9000B7177A00938707201CC3B7170240DC438C
:103DA000918393F6F700B707002093870700B69733
:103DB00094231C43B3D7D7001CC38280DC42D44277
:103DC0004166C983BD8BF18E890745466393C70061
:103DD000C94781EEB746024083A60680C18A89CED4
:103DE000B7167A009386062021A8B7160240D4425F
:103DF0001396E600E35606FEB7163D00938606903E
:103E0000B387D70251BF01A097D1FF1F938181A72C
:103E1000174100201301011F17350000130585E627
:103E200097C5FF1F9385051E1386818863FAC50019
:103E30008322050023A0550011059105E3EAC5FE84
:103E4000138581889385C17A6377B50023200500A7
:103E50001105E36DB5FEFD42739002BCAD42739057
:103E60004280B7620000938282087390023097C24A
:103E7000FFFF9382621993E2320073905230EFF0A9
:103E80001FE197F2FFFF9382E27B7390123473007D
:103E90002030EFC2EFB5B727014093870740631C7E
:103EA000F500854513050020392D814513050020B7
:103EB000192D6FC02FB6B737014093870780E31ADB
:103EC000F5FE854513050040FD2B81451305004097
:103ED000C5B75C413707F1E01307F7EF944D7D8FCD
:103EE0009C41D58FD44DD58FD441A206D58FD98F83
:103EF0005CC11C4537F7F1FF1307D77FD4457D8F91
:103F00009C49D58F94458606D58FD98F1CC55C55A5
:103F1000370710FF7D177D8FDC29FD1793F7F70F0B
:103F2000D207D98F5CD582801C4589C593E71700DD
:103F30001CC58280F99BEDBF1C4589C593E707101E
:103F40001CC5828093F7F7EFE5BF1C4593E7870018
:103F50001CC5828008450D81058982801C4593E738
:103F600047001CC582801C4591C537075000D98F7A
:103F70001CC582803707B0FF7D17F98FD5BFA547D5
:103F800063F7B7048D47138765FF3307F7020328EC
:103F9000C5009D47B397E70093C7F7FFB3F7070145
:103FA000B396E600DD8E54C5994763E3C704954791
:103FB0007D163306F6025859FD47B397C70093C7DD
:103FC000F7FFF98F3396C5005D8E50D982800D477B
:103FD0003387E502032805019D47B397E70093C7A0
:103FE000F7FFB3F70701B396E600DD8E14C96DBF86
:103FF000B14763E2C702954765163306F6021859C2
:10400000FD47B397C70093C7F7FFF98F3396C500F5
:104010005D8E10D9828095474D163306F6025855AD
:10402000FD47B397C70093C7F7FFF98FB395C50056
:10403000DD8D4CD582801C4565777D17F98FDD8D30
:104040000CC582805C4191C537070004D98F5CC1E3
:104050008280370700FC7D17F98FD5BFB7F7FF1FA8
:1040600003A5477082801C4141677917F98F1CC1F5
:10407000232005002322050023240500B707024062
:1040800023260500138787006317E500D8431367CD
:10409000F700D8C382801387C7016316E500D843B1
:1040A0001367070FFDB7138707036318E500D843AD
:1040B0008566938606F0558FE9BF1387470463151D
:1040C000E500D843BD66C5BF138787056316E500C5
:1040D000D843B7060F00C5B71387C7066316E500B8
:1040E000D843B706F000C1BF138707086316E50081
:1040F000D843B706000FC1B7138787406319E5009F
:1041000003A747401367F70023A2E7408280138785
:10411000C7416317E50003A747401367070FEDB7D3
:1041200093870743631BF500B707024003A7474087
:104130008566938606F0558FC1BFB7070240138787
:1041400047446316E50003A74740BD66EDB71387F4
:1041500087456317E50003A74740B7060F00E1BF97
:104160001387C7466317E50003A74740B706F0006B
:10417000D9B7138707486317E50003A74740B70679
:10418000000F55BF138707496319E50003A7474D83
:104190001367F70023AAE74C82801387074A631747
:1041A000E50003A7474D1367070FEDB71387074BCC
:1041B0006319E50003A7474D8566938606F0558F82
:1041C000D1BF1387074CE319E5FC03A7474DBD6634
:1041D000FDB71C4161773D0794517D8F9C45D58F7C
:1041E0009449D58FD449D58F944DD58FD44DD58F43
:1041F000D451D58F9455D58FD98F1CC1DC455CC166
:104200009C411CC5DC415CC582801C4189C593E78B
:1042100017001CC1828041677917F98FDDBF9C456B
:1042200013F7070113F8F70001C7D8413368E80016
:104230008E2113F7F50F39C318418146854E3D4F46
:10424000930F800293028004214E3396DE00B3F870
:10425000C500631116039398260033131F011343FF
:10426000F3FF3377E300B318180133E7E800639FE7
:10427000F70550C98506E39AC6FD18C11307F00F6C
:104280006375B70454412146854E3D4F930F80021C
:1042900093028004414EB398CE0033F71501639228
:1042A000E8021317260001173313EF001343F3FF3F
:1042B000B376D3003317E800D98E639DF701232A24
:1042C00015010506E319C6FD54C18280E39457FA2F
:1042D00010C94DB7E39757FE23281501DDB70845F0
:1042E0006D8D3335A000828019C20CC982804CC903
:1042F000828023ACA18C828003A7818D8947102105
:104300006311F70214318D4763EDD7003C219A0603
:1043100037E700E09607D58F93F7F70F3297230022
:10432000F74054410547935756003317C70089CAD1
:10433000938707048A07B7E600E0B69798C38280A0
:1043400093870706B7E600E08A07B69798C30F1071
:1043500000008280B7160240DC4251777D17F98F4A
:104360005D8DC8C28280371702405C439146B18B95
:104370006385D700A1466382D706B7177A00938773
:1043800007201CC1371602405C4237070020130784
:1043900007019183BD8BBA9794231C41B3D7D700F3
:1043A0005CC15442A1829D8ABA969422B3D6D700AA
:1043B00014C55442AD829D8A36971823B3D7E700BF
:1043C0005CC558423983937637001387C18036978E
:1043D0001823B3D7E7021CC982805C43544341676A
:1043E000C983F98E37F7FF1F0327C770BD8B890775
:1043F0001316170163480600454601476392C7023A
:10440000C94739A809476389E7023D476388E7023E
:1044100041476388E702454601476393C700C147A8
:1044200085E6B746024083A60680C18A8DC6B716C8
:104430007A009386062025A00147D9B70547B547DE
:10444000C5B70147BD47E9BFB7160240D44213962E
:10445000E600E35E06FCB7163D0093860690B38740
:10446000D7021CC105D31C41858321BF99C53717CD
:1044700002405C4B5D8D48CB8280B7170240D84B21
:104480001345F5FF798DC8CB828099C53717024057
:104490001C4F5D8D08CF8280B7170240984F13459F
:1044A000F5FF798D88CF828099C5371702405C4F20
:1044B0005D8D48CF8280B7170240D84F1345F5FF76
:1044C000798DC8CF828099C5371702405C475D8DD2
:1044D00048C78280B7170240D8471345F5FF798D4A
:1044E000C8C78280B7170240D843B70640FFFD1601
:1044F000758FD8C3D8435A05598DC8C382801E21F1
:1045000037370140930607C0C207C1836300D50453
:10451000B7060040630CD502938606406308D502B7
:10452000B7160040138606806302C502938606C054
:10453000630ED50013070740630AE50037570140B3
:10454000930607C06304D5006316E500BA2193F70C
:10455000F7F8D98F37170040630CE50013070740C1
:104560006308E50093F7F7CFFA21C207C183D98F1B
:104570001EA1DE215EB59E211EB5B737014013870F
:1045800007C0630EE50093870740630AF500B7573D
:104590000140138707C06304E5006314F5009C2500
:1045A0001EB985475EA982801E2189C593E7170041
:1045B0001EA18280C207C183F99BC207C183CDBF00
:1045C0005E2501C6DD8D4EA5828093C5F5FFFD8D6C
:1045D000DDBF1E294A25ED8F4205418189C76D8DBA
:1045E0003335A00082800145828093C5F5FFC20566
:1045F000C1810EA98280EFB2BFBF1629F577FD17E2
:10460000F58FF621DA257971D58F1EA95625FD770C
:104610009387379FF58FD6212A842EC6D58F96256E
:10462000D58FB625D58F5EA55E29C207C18393F7C6
:10463000F7CFD98F5EA96808EFF0FFD2B7470140E6
:1046400093870780B245631EF402A2576547B3877C
:10465000E7029841930640060A07B3D7E70233D72B
:10466000D702B3F7D7021207920793872703B3D76E
:10467000D702BD8BD98FC207C1831EA445616FB01D
:104680007FB99257E1B791C55E250967D98F5EA5BD
:1046900082805A25F977FD17F98FD5BF13F7F50FEB
:1046A00085471583B395B7006319F7009307C500D5
:1046B000984301CED98D8CC38280894693074501EA
:1046C000E318D7FE93070501E5B793C5F5FFF98D0C
:1046D000DDB793F5F51F4EA182804A211375F51FB2
:1046E00082800A216D8D3335A000828013F7F50F8B
:1046F00085461583B397B6006311D7025A25F98F03
:104700001A2101454207418381CB0545A181B3159B
:10471000B5006D8F3335E000828089466314D70081
:104720001A29F1BF5A29E1BFA1818547B397B70084
:1047300093C7F7FFC207C1831EA1828083A7818030
:1047400037177A0013070720B3D7E70293F7F70F5D
:10475000238FF18C1307803EB387E702239EF18CF1
:104760008280B7F700E0D8438146799BD8C303C75E
:10477000E18D3306A70290CBD4CB98431367070192
:1047800098C398431367170298C3D843058B75DF06
:104790009843799B98C38280B7F700E0D84381465D
:1047A000799BD8C303D7C18D3306A70290CBD4CB56
:1047B00098431367070198C398431367170298C378
:1047C000D843058B75DF9843799B98C38280EFB2FD
:1047D0003FA22A841165011185451105EFF0FFCA3A
:1047E000930700207C82371501408D473EC44C0062
:1047F000E147130505803EC6EFF07FA222C837448B
:104800000140B7070C000C08130504803ECC02CA17
:10481000231E0100EFF03FDE854513050480EFF015
:104820009FE605616FB01F9FEFB2FF9AB74401404A
:10483000AE893289014493840480634524014A850A
:104840006FB0BF9C930500042685EFF09FE97DD9EA
:10485000B38789008385070026850504C205C181C9
:10486000EFF03FE7D9BF138701811C439386C17ADC
:104870003E95636BD500B78600209386068063E57E
:10488000A60008C33E858280FD57EDBF93F5F50F66
:104890002A966314C500014582801C21E38EB7FE71
:1048A0000505C5BFB3C7A5008D8B3307C50081E7DC
:1048B0008D4763EDC700AA87637EE50894218507CD
:1048C0008505A38FD7FEE3EBE7FE82809376350064
:1048D000AA8789CA942185078505A38FD7FE93F6F9
:1048E0003700C5BF9376C7FF138606FE63F0C70681
:1048F00083A3050083A2450083AF850003AFC500F5
:1049000083AE050103AE450103A3850183A8C5015C
:104910009385450223A0770003A8C5FF23A2570073
:1049200023A4F70123A6E70123A8D70123AAC701DF
:1049300023AC670023AE17019387470223AE07FF1E
:1049400075B790419107910523AEC7FEE3EBD7FE03
:10495000E3E6E7F6828039713EDA2ED232D436D6DB
:104960003AD842DC46DE9387418122CC804326CA76
:1049700006CEAA8409C41C4C99E322850D2B0C4455
:1049800054102686228536C6EF00D016F2406244C7
:10499000D24421618280011126CA4AC806CE22CCA7
:1049A0004EC652C4AA842E8901C51C4D91E3012331
:1049B0009C4C804499E32685DD2997270000938746
:1049C000A724631BF402C0405E24A18BB1C71C481E
:1049D000A1C7FD59294A1C4483450900FD17B1E9C7
:1049E0001CC463DD07062286A94526857D28FD5760
:1049F0006308F502294535A0972700009387C72251
:104A00006314F4008044C9B7972700009387C71D3B
:104A1000E31CF4FAC0444DBFA2852685A92255D9CE
:104A20007D55F2406244D2444249B249224A05616E
:104A300082801CC4050963D70700184C63CAE700CD
:104A4000638845011C401387170018C08CA361B709
:104A5000228626859928E31035F9D9B71C4013879B
:104A6000170018C0294798A371B793874181AA8579
:104A700088436FF05FF218219C2101E791C3014543
:104A80008280814739A01C3113071500EDDB814777
:104A90003A853387F500182365D7B306F5009422CD
:104AA000E393E6FE85072A87E5B7011122CC26CAE3
:104AB0004AC806CE4EC6AA842E89328401C51C4D32
:104AC00091E3F52697270000938707146317F406F0
:104AD000C0401C4C1CC45E24A18BC1C31C48B5CF74
:104AE0001C4808409379F90F1379F90F1D8D5C4824
:104AF0006346F500A2852685692C25E51C4405053D
:104B0000FD171CC41C401387170018C023803701F1
:104B10005C486388A7005E24858B81CBA947631618
:104B2000F900A2852685B5240DEDF24062444A8540
:104B3000D2444249B2490561828097270000938799
:104B4000A70E6314F400804469B797270000938789
:104B5000A709E310F4F8C044ADBFA2852685212043
:104B600041D17D59D9B741119387418126C28443F0
:104B700022C44AC006C62A892E8489C49C4C99E363
:104B8000268535269727000093870708631BF402C4
:104B9000C0400317C40093170701C18393F6870031
:104BA000ADEA93F6070195EEA5472320F9001367B8
:104BB00007045AA47D55B24022449244024941015F
:104BC000828097270000938727066314F4008044AF
:104BD000C9B79727000093872701E31CF4FAC04464
:104BE0004DBF918B9DC34C5889C99307440463847E
:104BF000F5004A85292B232A04025E24232204007F
:104C000093F7B7FD5EA41C481CC05E2493E78700A1
:104C10005EA41C4899EB5E241307002093F7072835
:104C20006385E700A2854A8591295E2413F7170062
:104C30001DC35C4823240400B307F0401CCC1C486F
:104C40000145B5FB8317C40013F707082DD793E779
:104C500007045EA485B7898B014791E3584818C4BF
:104C6000F9BFDE25011122CC26CA06CE4AC84EC69F
:104C700013F78700AA842E8479EBD841634DE000B6
:104C8000B841634AE0000145F2406244D2444249DF
:104C9000B2490561828058547DD703A904009396D8
:104CA000370123A0040063DB060670485E24918B65
:104CB00099C75C401D8E5C5899C33C401D8E5C5466
:104CC0000C50814626858297FD575A24631DF500B6
:104CD0009440F54763E8D706B70740208507B3D768
:104CE000D700858BA5C31C48232204001CC0931742
:104CF000370163D80700FD576314F5009C4091E32A
:104D000068C84C5823A02401BDDD93074404638484
:104D1000F5002685ED2E232A0402B5B70C50014676
:104D2000854626850297FD572A86E311F5F89C40B3
:104D3000B5DF75476385E70059476393E70423A010
:104D4000240191B7136707045AA47D5535BF83A981
:104D50000501E38A09F203A905008D8B23A0350123
:104D600033093941014791E3D84918C4E35D20F183
:104D70001C540C50CA864E86268582976347A00035
:104D80005E2493E707045EA4C9B7AA993309A94032
:104D9000F1BF9C49A5C3011122CC06CE2A8411C5BE
:104DA0001C4D81E72EC62122B2459727000093872C
:104DB000A7E5639CF5004C408397C5009DC72285FD
:104DC0006244F24005616FF0DFE9972700009387A6
:104DD000A7E56394F5000C44C5B7972700009387B7
:104DE000A7E0E39BF5FC4C44C1BFF240624401459F
:104DF0000561828001458280411122C406C62A8451
:104E00004EA572A5232005002322050023240500BA
:104E10002322050623280500232A0500232C05004C
:104E2000214681451305C505EFB08FBF97170000D8
:104E3000938707B35CD097170000938727B51CD4DE
:104E400097170000938707B95CD4971700009387E2
:104E500067BB00D01CD8B240224441018280970534
:104E60000000938545F391AA411126C213068006DE
:104E70009384F5FFB384C4024AC02E8922C406C6B7
:104E8000938544070D2E2A8401CD2320050023227B
:104E90002501310508C4138684068145EFB04FB85B
:104EA0002285B240224492440249410182801C4D35
:104EB000A5E7411106C622C497070000938767FA49
:104EC0001CD5938701889C432324050423260504CD
:104ED000232805046314F50085471CCD2A84352852
:104EE00048C022851D2808C42285052848C448409A
:104EF00001469145EFF05FF008440546A545EFF007
:104F0000BFEF48440946C945EFF01FEF85471CCC69
:104F1000B2402244410182808280411193870188FE
:104F200026C284434AC006C69C4C22C42A8981E713
:104F30002685EFF0DFF7938484048044DC40FD177E
:104F400063D607009C40B9CF8440C5BF0317C40097
:104F500039E7C17785072322040623200400232292
:104F60000400232404005CC423280400232A040032
:104F7000232C0400214681451305C405EFB04FAA38
:104F8000232A0402232C04022324040423260404D9
:104F90002285B24022449244024941018280130496
:104FA000840671BF91454A85EFF01FEC88C049FD2A
:104FB000B1472320F9000144E1BF797122D44AD0DE
:104FC00052CC56CA5AC85EC606D626D24ECE2A8AB9
:104FD000AE8A130485040149054BFD5B09ECB25010
:104FE00022544A8592540259F249624AD24A424BAB
:104FF000B24B45618280044483294400FD1963D487
:1050000009000040E1BFDE24637BFB008397E400DE
:1050100063877701A6855285829A3369A9009384B4
:105020008406E9BF1971A6DAAE848395E500A2DC97
:1050300086DE328463DB0500DE2423A0060093F7BE
:10504000070885E7930700401DA0300836C6EF002B
:10505000F020B246E34205FE7247BD67F98F7977CB
:10506000BA9793B717009CC2F1BF930700041CC006
:10507000F6506654D654014509618280DE2501113F
:1050800022CC06CE26CA4AC8898B2E8489CF9307A4
:1050900074041CC01CC885475CC8F2406244D244FA
:1050A00042490561828074003000AA84EFF09FF7C6
:1050B000A2452A892685012219E98317C40013F71E
:1050C000072061FFF19B93E727005EA4C9B797070C
:1050D0000000938707D99CD45E2408C008C893E7D2
:1050E00007085EA4A2475CC8B24781CF8315E400DD
:1050F0002685EF00501911C55E24F19B93E7170038
:105100005EA45E243369F9002316240179B7DDC15A
:1051100083A7C5FF411122C406C626C21384C5FF5A
:1051200063D307003E94AA84EF00301B9387018E5F
:105130009C4381EF2322040023A0818E2244B240AD
:105140002685924441016F007019637EF40014407B
:105150003307D4006396E7009843DC43369718C0C2
:105160005CC0D9BFBA87D84319C3E37DE4FE94433A
:105170003386D700631F86001040B29694C33386EF
:10518000D700E31DC7FA10435843B29694C3D8C35F
:1051900075B76375C400B1479CC04DB71040B306E6
:1051A000C4006316D70014435843B29614C058C0C5
:1051B000C0C369B78280011126CA93843500F19873
:1051C00006CE22CC4AC84EC6A104B14763F3F4040C
:1051D000B14463E2B4042A89EF0030109387018E52
:1051E00098433A8439E09387418E9C4391E7814507
:1051F0004A85812723A2A18EA6854A851D2FFD59A8
:1052000063193507B1472320F9004A85EF00100DD7
:1052100029A0E3D004FCB1471CC10145F24062441F
:10522000D2444249B249056182801C40858F63CFD8
:105230000702AD4663F6F6001CC03E9404C031A0E0
:105240005C406313870223A0F18E4A85EF001009AA
:105250001305B4009307440061993307F5405DDFFF
:105260003A94898F1CC05DBF5CC3C5B7228740409C
:1052700095BF130435007198E30285FCB305A44083
:105280004A85452DE31C35FBB5BF1C46FD171CC6E2
:1052900063DA0700184E63C5E700A9476394F50079
:1052A0006FF0BF801C422E851387170018C28CA395
:1052B0008280011122CC26CA4AC84EC652C406CEEC
:1052C0002A89AE893284B304D6007D5A63149400CF
:1052D000014509A80C204E864A85EFF01FFB050406
:1052E000E31645FFF2406244D2444249B249224AA1
:1052F00005618280357122CD26CB4AC94EC706CFC3
:1053000052C556C35AC1DEDEE2DCE6DAAA89AE84B3
:105310003289368409C51C4D99E3EFF05FB99727B0
:1053200000009387678E6399F40C83A44900DE2400
:10533000A18BEDC79C48FDC393070002A304F102B3
:105340009307000302D22305F10222C6930B5002F9
:10535000972A0000938A4A8F054C294B4A841C20C7
:1053600099C36390770FB30C2441638E0C00E686DB
:105370004A86A6854E85EFF0DFF3FD576302F51EE2
:105380009256E69636D21C20638C071CFD571309F3
:10539000140002C802CE3ECA02CCA309010482D482
:1053A0008345090015465685EFF04FCE13041900CA
:1053B000C24751E913F7070109C713070002A30900
:1053C000E10413F7870009C71307B002A309E1043A
:1053D000834609001307A002638FE606F2474A845A
:1053E00081462546182093051400130707FD6377AF
:1053F000E60AB5CA3ECE85A8972700009387C782E4
:105400006395F40083A489001DB797170000938764
:10541000A77DE39EF4F083A4C90011BFA6854E8545
:10542000EFF06FF411D97D55FA406A44DA444A49E5
:10543000BA492A4A9A4A0A4BF65B665CD65C0D6109
:105440008280050429BF330555413315AC00C98F4F
:105450003EC82289B1B7324793064700184336C683
:10546000634707023ACE18209307E002631DF70452
:1054700018309307A002631BF702B2470904138791
:1054800047009C433AC663C107023ECA2DA83307B2
:10549000E04093E727003ACE3EC8F1B7B3876703F1
:1054A00085462E84BA973DBFFD57C5B7050402CA8D
:1054B000814681472546182093051400130707FDF0
:1054C0006376E606F9F20C200D4617150000130569
:1054D0002578EFF0AFBB11CD971700009387477782
:1054E0001D8D93070004B397A700424505045D8D09
:1054F0002AC80C201946171500001305A5751309B5
:1055000014002304B102EFF06FB835C197B7FFFF65
:10551000938747AF95E74247B2471377071009CF04
:1055200091073EC69257D2973ED20DBDB38767030F
:1055300085462E84BA9741B79D07E19BA107D5B751
:10554000780097060000938606D726860C084E85BD
:1055500097000000E7000000FD572A8AE314F5FCDD
:10556000DE2493F70704E39007EC125575BD78002D
:1055700097060000938626D426860C084E85012ABD
:10558000E1BF797156CA9C49BA8A984522D426D27D
:105590004ECE52CC06D64AD05AC85EC6AA892E84B0
:1055A000B284368A63D3E700BA879CC003473404C9
:1055B00019C385079CC01C4093F7070281C79C4014
:1055C00089079CC00329040013796900631A090044
:1055D000130B9401FD5B5C449840998F634CF90474
:1055E0001C408346340493F70702B336D000A5EB82
:1055F00013063404D2854E85829AFD576303F50461
:105600001C4011469840998B544481446397C700CD
:10561000B384E64063D3040081441C4418486354B7
:10562000F700998FBE94014969047D5B6398240556
:10563000014509A885465A86D2854E85829A631E01
:1056400075017D55B250225492540259F249624A72
:10565000D24A424BB24B456182800509ADBF330748
:10566000D40013060003A301C7040347540493871F
:105670001600A2978906A381E7049DBF854622866E
:10568000D2854E85829AE30E65FB050945B779718F
:1056900022D426D24AD04ECE06D652CC56CA5AC8AA
:1056A000B689942D930790063289AA842E84138696
:1056B0003504638DF60263E2D7069307800563879E
:1056C000F61863EDD700638F062093073004638FCD
:1056D000F60A930A24042301D404D1A093073006C8
:1056E0006386F60A93074006E395F6FE1C400843DE
:1056F00093F6070893054500CDC61C410CC363D83B
:1057000007001307D002B307F040A301E404971683
:1057100000009386A65429476DA89307000763836A
:10572000F61663E5D7029307E006638AF618930737
:10573000F006E390F6FA0C401C4313F805081385B5
:1057400047006308080608C39C438DA893075007C9
:10575000E383F6FE93078007638AF6129307300708
:10576000E399F6F61C43D04181459386470014C364
:1057700083AA07005685EFF06F9101C533055541A7
:1057800048C05C401CC8A301040461A81C43930AE0
:105790002404938647009C4314C32301F4048547E3
:1057A000D5B793F607041C410CC3B1DAC207C18711
:1057B000B9B793F5050408C3C1D99E231307F006B2
:1057C0006387E60E97160000938646492947A30192
:1057D00004044C400CC463C5050008406D9908C022
:1057E00099E3B28A89CDB28AB3F5E702FD1AB6957C
:1057F0008C212380BA00B3D5E70263F0E70CA14700
:10580000631EF7001C40858B91CB58401C4863C732
:10581000E70093070003A38FFAFEFD1A33065641F3
:1058200010C84E87CA867000A2852685EFF07FD506
:105830007D5A631D450B7D55B25022549254025936
:10584000F249624AD24A424B45618280A382D50422
:1058500097160000938686400C40084313F805080D
:105860001C411105630D080208C313F7150001C799
:1058700093E505020CC04147B9FB0C4093F5F5FDDB
:105880000CC0B1B79C4193E707029CC19307800706
:10589000A302F404971600009386863D75BF13F8A3
:1058A000050408C3E30308FCC207C1837DBF971644
:1058B00000009386A63A214719BFAE8735B79441B9
:1058C0001C43CC4913F806081385470063060800FB
:1058D00008C39C438CC339A008C393F606049C43B9
:1058E000F5DA8EA323280400B28A25BF1448568611
:1058F000CA8526858299E30045F51C40898B8DE792
:10590000B2474844E35AF5F23E853DB78546568690
:10591000CA8526858299E30065F3050A5C4432470F
:10592000998FE345FAFEE9BF014A930A94017D5B32
:10593000F5B7411122C42A842E8523A4017A06C614
:10594000EFE07FF2FD576317F5009387817A9C4360
:1059500091C31CC0B240224441018280411122C443
:105960002E848395E50006C69D2A634905007C4880
:10597000AA977CC8B2402244410182805E247D7790
:105980007D17F98F5EA4FDB7DE25011122CC26CA52
:105990004AC84EC606CE93F70710AA842E843289D1
:1059A000B68991C78395E5008946014609225E24A0
:1059B0007D777D17F98F5EA48315E4006244F24081
:1059C000CE864A86B24942492685D244056125A839
:1059D000411122C42E848395E50006C6C928FD57CF
:1059E0005A24631AF500FD77FD17F98F5EA4B240C3
:1059F0002244410182808567D98F5EA468C8C5BFF3
:105A00008395E50005A8411122C42A842E85B2851C
:105A1000368623A4017A06C6EFE01FE1FD5763171F
:105A2000F5009387817A9C4391C31CC0B240224405
:105A300041018280411122C42A842E8523A4017A47
:105A400006C6E120FD576317F5009387817A9C43D2
:105A500091C31CC0B240224441018280411122C442
:105A60002A842E85B28523A4017A06C66D20FD57AF
:105A70006317F5009387817A9C4391C31CC0B240A1
:105A8000224441018280411122C42A842E8523A40C
:105A9000017A06C67920FD576317F5009387817A4E
:105AA0009C4391C31CC0B2402244410182804111F9
:105AB00022C42A842E85B285368623A4017A06C69E
:105AC000BD20FD576317F5009387817A9C4391C3EE
:105AD0001CC0B240224441018280828082804111F8
