:100000006F00807B000000004A0100004C010000EE
:1000100000000000000000000000000000000000E0
:1000200000000000000000000000000000000000D0
:10003000B607000000000000B60700000000000046
:10004000B6070000B6070000B6070000B6070000BC
:10005000B6070000B6070000B6070000B6070000AC
:10006000B6070000B6070000B6070000B60700009C
:10007000B6070000B6070000B6070000B60700008C
:10008000B6070000B6070000B6070000B60700007C
:10009000B6070000B6070000D001000058030000BA
:0800A000B6070000000000009B
:1000A800511126C022C206C4828282441244A24050
:1000B80031018280634E050263C305042E86AA853A
:1000C8007D5515C285466378B6006356C00006069E
:1000D8008606E36CB6FE014563E4C500918D558D37
:1000E80085820582F5FA82808682C93F2E858282C2
:1000F8003305A0406347B000B305B040C1B7B305AE
:10010800B0408682653F3305A0408282868263C7FD
:100118000500634905005D372E858282B305B0402E
:10012800E35B05FE3305A040513F3305B0408282B2
:1001380000002A8311C62300B3007D16050365FE5F
:10014800828001A0B707EFBE37E700E09387070872
:100158003CC701A02A871C432E8589E79397450051
:100168001CC38280BE959183B387F54013D54700A1
:10017800C5BFEFF2FFF231112E84AA8485450545EB
:10018800EF0090512C0037050040648660842317E7
:10019800010023150100EF0010520546854537057B
:1001A8000040EF00705D930760127C800A858547E8
:1001B8003EC223010100EF00B03A854537050040F3
:1001C800EF0030565101D5B5854537050040EF00A1
:1001D800D05B19C9854537050040EF00905C83A7BF
:1001E800C183850723AEF18273002030EFF25FEB05
:1001F800116511118545450502C002C202C402C637
:1002080002C802CA02CCEF005047370516008545E0
:100218001305050CEF00607C85477C803EC28A850B
:10022800E147371501403EC4EF00207389477C80C1
:100238008A859147371501403EC4EF000072F16787
:1002480037440140938707203EC66C00B7070C006F
:10025800130504803ECA02C8231C0100EF00305574
:10026800854513050480EF00305E71013DBDEFF256
:100278003FE309651301C1FD85451305150202C455
:1002880002C602C802CA02CC02CE02D002C002C212
:10029800EF00B03E37052408854513050503EF0038
:1002A800C073371401408544914761472C001305FA
:1002B80004407C8426C63AC8EF00206A214791474B
:1002C8002C001305044078843EC8EF000069F167EC
:1002D80037440040938707204C083ECA1305044062
:1002E800B7070C003ECE02CC23100102EF00304CC1
:1002F800930770120A857C80448126C2EF0050263D
:1003080005461305044093055052EF0030558545C6
:1003180013050440EF0050531301410279B3EFF283
:100328003FD85111A937930700027C80C1473EC4CA
:100338008A858547371501403EC2EF0000620146B5
:100348009305000237150140EF0080683101B1BB09
:10035800611122C2374400409305505213050440EE
:1003680026C0EF00D05401CD13050440EF00105310
:100378001375F50FA388A18205472388E182B74446
:1003880000409305707213850440EF00505205C970
:1003980003C7A18183C791816378F70203C7A1814D
:1003A8009387C181BA978C2313850440EF00904E40
:1003B80083C7A181850793F7F70F238DF180124436
:1003C8008244210173002030014693057072138521
:1003D8000440EF00B048238C0180D5B7EFF25FCC22
:1003E8001301C1FD61468145680002C002C202C412
:1003F8008933854513050022EF0030281165EF0089
:10040800501C37150140930700078A8513050540DE
:100418007C8002C4992337240140B7070E003ECCE4
:100428006C008547130504402300F10202C602C888
:1004380002CA02CE1921854513050440B121794528
:10044800EF00B04D130141028DB1EFF27FC571117C
:10045800B7240140AA852AC09D4613850440054655
:1004680081291385044085450529E1679384076A36
:1004780037240140B7270140894513850740D92112
:1004880009C5130504405D2911A8FD14E5F482454A
:10049800096513054580EF10C02E0145110131B1E2
:1004A800B707002023A00704B707002023AE0702E0
:1004B800B707002023AC07028280EFF27FBE83A536
:1004C80041813705002013050504693123AAA1805D
:1004D80083A50181370500201305C503A53923A885
:1004E800A18083A5C18037050020130585039D31B0
:1004F80023A6A1805DBEEFF2BFBA85641945B13766
:10050800138444CE330585029305D00C453E23AAB7
:10051800A18015451D3F330585029305D04C793ED2
:1005280023A8A1801D451537330585029385A49915
:10053800713623A6A18051378DBEEFF27FB65111D7
:100548008545414502C002C202C4EF001013A1470D
:100558007C8085473EC28A85C147371501403EC425
:10056800ED2E0146A145371501409D21310135BECB
:100578008547631AF50005466383A5000146A14532
:1005880037150140B1A18280EFF29FB10545EF0018
:10059800C07C5D2A9307800873A007309305F0029A
:1005A8001305703EF936EF00503489318D3B3D35E7
:1005B800C53D6137B707002083A507010965130505
:1005C8004582EF10001C6926AA8509651305C583B5
:1005D800EF10201B03C71183930760066310F7020F
:1005E800A388018205472389E18283C521830545C4
:1005F8004137096513054585EF10C01A03C71183F4
:1006080093077007631FF700A3880182238901827B
:1006180083C521830545A93F09651305C586EF10E4
:10062800601883A7C18383A64183958FA54663F786
:10063800F60083A7C18323AAF182753D83A7C183EE
:1006480083A68183958F9306703EE3F5F6F883A71A
:10065800C18323ACF182453503A5C1839305803E50
:10066800B13CAA85096513054588EF10801183A55B
:10067800418103A6018183A6C180096513054589C7
:10068800EF10201081BFEFF2BFA18946B7270240C3
:100698003714024094C31C403707FF68C17493E7BE
:1006A80017001CC05C40FD14F98F5CC01C40370764
:1006B800D7FE6D17F98F37071000D98F1CC01C4063
:1006C8003707FCFF7D17F98F1CC05C40E58F5CC0C5
:1006D800B7079D001CC41C4C93E707021CCCB71736
:1006E80001409387074098431377F7F098C39843DE
:1006F8001367070898C394CB51265C40370700015D
:10070800B70600025CC05C40E58F5CC05C405CC022
:100718001C40D98F1CC0B71702409843758F75DFEE
:10072800D843B7160240719BD8C3D8431367270034
:10073800D8C32147DC42B18BE39EE7FEB7270240CE
:10074800094798C36FF07F96371702405C43A1466C
:10075800B18B6394D7045C433775DC02130505C07D
:10076800B7160240D842B7070020938707001183C5
:100778003D8BBA979C23D84293F5F70F1377070858
:10078800B357F50005E3EFF2BF91EFF03F9337075A
:1007980000202328A7006FF05F9137356E011305FD
:1007A80005607DBF370700202328F700828001A05D
:1007B80097010020938101081711002013010104FB
:1007C800171500001305C5159705002093850583A7
:1007D800170600201306068663FAC5008322050063
:1007E80023A0550011059105E3EAC5FE1705002071
:1007F80013054584938581846377B500232005001C
:100808001105E36DB5FE8962938202887390023008
:100818008D427390428097F2FFFF9382227E93E28B
:10082800320073905230EFF01FE697020000938277
:10083800E2D573901234730020305841B707F1FFA6
:100848009387F7EF7D8FDC419441A207D58FD98F2D
:100858005CC11845B7F7F1FF9387D77FD4457D8FE3
:100868009C49D58F94458606D58FD98F1CC5585578
:10087800B70710FFFD177D8FDC29FD1793F7F70FDA
:10088800D207D98F5CD582801C4589C593E71700AC
:100898001CC58280F99BEDBF1C4591C537075000E8
:1008A800D98F1CC582803707B0FF7D17F98FD5BF58
:1008B8000D473387E502032305019D47B397E700FA
:1008C80093C7F7FFB3F76700B396E600DD8E14C948
:1008D800994763E2C70295477D163306F6025859D1
:1008E800FD47B397C70093C7F7FFF98F3396C50045
:1008F8005D8E50D98280B14763E2C702954765167D
:100908003306F6021859FD47B397C70093C7F7FF98
:10091800F98F3396C5005D8E10D9828095474D16A4
:100928003306F6025855FD47B397C70093C7F7FF3C
:10093800F98FB395C500DD8D4CD582806845420599
:10094800418182801C4133F5F5003335A000828057
:10095800B7F7FF1F03A547708280944593F70601F8
:1009680013F3F60081C7DC413363F30083D205003B
:1009780093F7F20FA9CF0C41611122C226C081471B
:10098800930380023D449304800405473317F7001E
:1009980033F6E2006310C7026397760258C91396CC
:1009A80027003317C4001347F7FF6D8F3316C300B2
:1009B800B365E60085072147E399E7FC12440CC1BB
:1009C800824421018280E39C96FC18C9C9BF8280B9
:1009D80019C20CC982804CC9828037030140B7070D
:1009E80000088326C3001356050113170501E98F74
:1009F8003D8A4183BDC7B7073000B372F5006394E1
:100A0800F202370600F97D16B3F7C6008326C30045
:100A1800F18E2326D30095C5458113750507331735
:100A2800A700D98F39A8B7074000E98F99CF9D470C
:100A3800B397C70093C7F7FFF58F81C53316C70073
:100A4800D18F370701405CC78280B70720006393C6
:100A5800F20041069D47B397C70093C7F7FFF58F8C
:100A68005DBFB7071000E98F99C3BD47EDB793572E
:100A7800150193F70707B317F700C5B7EFF24FE271
:100A8800511185451305C00302C002C202C4F526F0
:100A9800B7F7FF1F03A74770B70652009386066093
:100AA8009377F7F06386D70A63E2F60CB70624005B
:100AB800938606606380D72063E0F604B7062200B9
:100AC80093860660638FD72463EFF600C177938718
:100AD800F7F0F98F3707200013070760639BE700DB
:100AE8009307900F35A8370723001307076063841F
:100AF800E72031016FF06FDBB70650009386066080
:100B08006383D71A63E0F604C1779387F7F07D8F84
:100B1800B707400093870760E39DE7FC9307900EB3
:100B2800371401407C808A8593078002130504806E
:100B38003EC425359307F0077C808A85130504C0D9
:100B4800293D45BF3707510013070760E393E7FACC
:100B580093079006371401407C808A8593078002AA
:100B6800130504803EC4D53BAD47F9B73707640089
:100B780013070760E386E7F66361F7063707620045
:100B880013070760E38CE7F86364F704370753003B
:100B980013070760638DE70C3707610013070760C9
:100BA800E399E7F493070008371401407C808A85AD
:100BB80093078002130504803EC44533930740071A
:100BC8008A85130504C07C80493B9307800CADA03F
:100BD800370763001307076081B7371773001307D8
:100BE80007806386E702636BF70037177000130707
:100BF80007806388E704370771004DB7371774001B
:100C080013070780E397E7EE9307000C71BF93077C
:100C1800000C371401407C808A85930780021305F5
:100C280004803EC41D3B930740078A85130504C012
:100C38007C8025339307900C7C808A85371501408A
:100C480001B79307000C371401407C808A8593070D
:100C58008002130504803EC40933930740078A8540
:100C6800130504C07C80D5399307B00CF1B79307FE
:100C78009006371401407C808A859307800213050B
:100C880004803EC4D939AD478A85130504C07C80E9
:100C9800E9319307C0028A85371501407C80753990
:100CA8009307C006A1A09307800C7C80930780025D
:100CB8003EC461B79307900F371401407C808A8542
:100CC80093078002130504803EC441399307F00757
:100CD8008A85130504C07C8049319307900E8A8564
:100CE800371501407C8095399307D0087C808A8528
:100CF80013050440B1B59307900F371401407C8069
:100D08008A8593078002130504803EC4B93193078E
:100D1800F0078A85130504C07C808131930760023F
:100D28009DBF9307900F371401407C808A859307F5
:100D38008002130504803EC40D319307F0078A85AD
:100D4800130504C07C801139930700028A85371582
:100D580001407C801931B54751BF23A0A18482800E
:100D680003A70184854714216310F7021C31639C93
:100D7800E7023C219A0793E707F837E700E093F783
:100D8800F70F36972300F740054793D756003317D8
:100D9800D700544189CE938707048A07B7E600E055
:100DA800B69798C38280EDF33C219A07F9B79387E9
:100DB8000706B7E600E08A07B69798C30F10000049
:100DC8008280B7160240DC423707FF7F1307F77FA0
:100DD800F98FC98FDCC28280EFF28FAC37170240DF
:100DE8005C43A1462A84B18B6394D7085C43B777E8
:100DF800DC02938707C01CC03716024054423707ED
:100E08000020130787029182BD8A3697082358422B
:100E18009375F50F1377070833D5A70001E73E85CB
:100E2800EFF0CFA948C008C448C4B7170240DC4354
:100E38008D46AD83FD8B13D737008A07F18BD98F89
:100E480013F6370113F7370063F4C600138747FF1B
:100E5800B7170240DC4363CA0700B707002093872F
:100E68004701BA978C23EFF06FA508C86FF0EFA37E
:100E7800B7376E0193870760BDBF99C53717024022
:100E88001C4FC98F1CCF8280B7170240984F13455B
:100E9800F5FF798D88CF828099C5371702405C4F5E
:100EA800C98F5CCF8280B7170240D84F1345F5FF32
:100EB800798DC8CF8280B7370140938707C0630612
:100EC800F500B7070040631DF5021E21BA21C207CD
:100ED800C18393F7F7F8D98FFA2193F7F7CFD98F12
:100EE8001EA1DE215EB59E211EB5B737014093874E
:100EF80007C06314F5009C251EB985475EA982804A
:100F0800B717004093870780631CF5001E21BA219C
:100F1800C207C18393F7F7F8D98F1EA1DE215EA51A
:100F28008280B7370140938707C09DC16306F500EB
:100F3800B70700406317F5001E2193E717001EA1AD
:100F480039A0B717004093870780E307F5FE828032
:100F58006306F500B70700406319F5001E21C207B4
:100F6800C183F99BC207C183D9BFB71700409387D4
:100F78000780E31EF5FCDDB75E2501C6CD8F5EA5B3
:100F8800828093C5F5FFED8FDDBF1E294A25ED8FC1
:100F98004205418189C76D8D3335A00082800145A6
:100FA800828093C5F5FFC205C1810EA98280EFF248
:100FB8002F8F1629F577FD17FD8EFE21DA252111D1
:100FC800D58F1EA95625FD779387379FFD8EDE2185
:100FD8002A84AE84D58F9625D58FB625D58F5EA564
:100FE8005E29C207C18393F7F7CFD98F5EA948005E
:100FF800E533B7470140938707806315F404C24778
:1010080065453385A7028C408A05EFF02F8B930541
:1010180040062AC0EFF08F8A9314450002459305D5
:101028004006EFF06F8C1205930540061305250363
:10103800EFF0CF883D89458D420541810AA46101C1
:101048006FF0AF86B2476DBF5E2589C50967D98F36
:101058005EA5828079777D17F98FDDBF13F7F50FCD
:1010680085471583B395B7006319F7009307C50043
:10107800984301CE4D8F98C38280894693074501D6
:10108800E318D7FE93070501E5B793C5F5FFF98D7A
:101098008CC3828093F5F51F4EA182804A21137577
:1010A800F51F82800A216D8D3335A000828013F7E9
:1010B800F50F85461583AA873395B6006310D702C6
:1010C800DA279E23798DC207C18301C9A18105470B
:1010D8003317B700F98F3335F000828089466314DF
:1010E800D7009A2BF9BFDA2BE9BFEFE27FFBB707EE
:1010F800002003A50701B7157A0093850520EFE0C6
:10110800FFFB1375F50F2383A1849307803E3305F6
:10111800F5022392A1846FE05FF9B7F700E0D843A6
:10112800799BD8C303C761843307A70298CB23A44C
:10113800070098431367170098C3D843058B75DFDA
:101148009843799B98C38280EFE29FF561112EC284
:1011580032C0014482476358F402B7440140B7479C
:10116800014093050004138507802D3F6DD99247F0
:1011780013850480B3868700838506000504C205AD
:10118800C181093FC1BF024521016FE01FF2411132
:1011980006C62EC00DCD1841AA8705C358417D55F6
:1011A80011CB8546631BD70098472300070023A26D
:1011B80007000545B240410182809847824614A342
:1011C8009847050798C7D8437D17D8C3DDB70546A4
:1011D8008A859D3FF9BF011126CA06CE22CC2AC0B6
:1011E8002EC2B28493F71600634D06082E853EC6BC
:1011F8003AC43684E52B2247B2472A8363519508BF
:101208006351E504998C13040002C1EFA687634F6C
:10121800F006A68763D3040081479D8C635BE302D5
:1012280033076740BA860245930500033AC83EC6AD
:1012380036C4B13FA246B2474247FD16EDF6BA970B
:1012480009A8898C098861D05DFF95CF814713046F
:1012580000033E871246B306F740B2968385060020
:10126800B9E1A6876349F004268663D304000146E2
:10127800F2406244D2443305E6000561828081442D
:10128800D1B7014349B71304000349B70245A28502
:101298003AC81AC63EC4E53DA24742473243FD1745
:1012A800BDB78147A5BF02453AC63EC4CD353247D2
:1012B800A247050745B70245A2853AC43EC2C13DCB
:1012C80092472247FD1779BF397126DA06DE22DCFC
:1012D8002AC03EC42E83BA8491EDA2469307000328
:1012E800014726866C08FC86FD35F2506254D254BC
:1012F80021618280B285368491CA294701446317E7
:10130800E600635503003303604005448647A3099C
:10131800010213073103938767FC3EC61A853ACA50
:101328002EC81AC2EFE05FDCA5471243C2455247F8
:1013380063D4A700B2473E95130505039307F7FF4B
:10134800A30FA7FE1A853ACC2ECA1AC83EC2EFE0F0
:10135800FFD64243D24562476376B30411C8B1C48D
:10136800A247898BB9C302459305D002FD14053500
:10137800A247918B85C3064793071006024593053C
:101388000003631EF702213593058007024509040F
:10139800F914F53B1647A246924502452686253D97
:1013A8002295A1B712472A8395BF92469307D00288
:1013B8000144A38FF6FE9307E7FF3EC255BFC13B2A
:1013C80093058005E1B701458280014582801301BC
:1013D80081FD22D006D226CE2AC62EC4328302C868
:1013E8000144A2478385070089EDB24781C781453B
:1013F8003E85713B925022850254F24413018102CA
:10140800828093075002638BF50032451ACA05049F
:10141800BD3B5243A24785073EC4E1B7A247938428
:10142800170083871700639AB70032459305500267
:101438001ACA0504A93B26C4E9BFC5DB1307D002B5
:101448006387E702634CF70013073002638EE704F3
:101458001307B0026386E704814731A81307000326
:10146800E39CE7FEA24793842700894729A0A24767
:10147800938427008547038704009306D0026301FD
:10148800D70463C8E60293063002630ED7029306B8
:10149800B002630CD70226C40145A546A94281A023
:1014A800A247938427004DBFA24793842700914702
:1014B800D9B793060003E310D7FE93E7270031A0BE
:1014C80085048547C9BF93E747008504E9B7330515
:1014D8005502620761873A95224705073AC42247B1
:1014E80003060700130706FD9375F70FE3F1B6FE31
:1014F8001307E00299466312E60222478146254611
:1015080005073AC4A945224703070700130707FD43
:101518009372F70F637A560236C822471306C0063D
:10152800030707006302C7046349E602130680063F
:101538006306C7081306A006630BC7081306C00492
:101548006307C708014635A8B386B60262076187F4
:10155800BA96224705073AC47DB7130640076308C1
:10156800C7061306A007E9BF2246830516000D46E5
:101578006396E5002247114605073AC42247050746
:101588003AC42247930500060307070063D5E5041C
:1015980093058007E3C0E5E893052006E3DCE5E66C
:1015A8001307D7F91377F70FD545E3E5E5E689651E
:1015B8000A079385C58C2E97184302872246830510
:1015C80016000146E39FE5FA2247090755BF22475F
:1015D80005073AC485BF9305700463C7E50213067F
:1015E8004004634CE61693063004E315D7E203275C
:1015F800030093044300A30C0100230CE100BE8602
:1016080001472A862C08A9A0930580059306100493
:10161800E312B7E011476314E608832503000326A5
:1016280043009304830036C23EC00147AA87C146DF
:101638003245513B2A942683F1BB8325030093044A
:10164800430081E589659385458C4247BE862A8695
:101658003245EFF05FB8F9BF11476310E602130790
:1016680010068325030003264300930483003AC22F
:101678003EC00547AA87A94665BF424783250300A0
:10168800930443003AC2130710063AC085462A87D6
:1016980029463245153979BF93061006A5BF42473A
:1016A80083250300930443003AC236C02A87814643
:1016B8004146C5B71147631FE60013071006832587
:1016C800030003264300930483003AC23EC0014747
:1016D800AA8755B7424783250300930443003AC2BB
:1016E800130710063AC081462A875DB7114793E76A
:1016F8004700631CE6001307100683250300032632
:101708004300930483003AC205B742478325030088
:10171800930443003AC2130710063AC041BF114769
:101728006310E6021307100683250300032643000F
:10173800930483003AC23EC00147AA87A146CDBDA3
:10174800424783250300930443003AC21307100657
:101758003AC081462A8721462DBF130710048325E6
:10176800030093048300032343003AC22A873245C7
:101778003EC01A86B687A94689396DBD130710067B
:10178800F9BF1301C1FD2EC832CAAA851008014548
:1017980006C636CC3ACE3ED032C01539B240130117
:1017A80041028280411122C426C206C68307050071
:1017B800AA840144DC81050499EFA9479305310007
:1017C80005460145DC81EFF03F98B240228522446E
:1017D8009244410182800546930531000145EFF0AE
:1017E800BF96B387840083870700E9B7AA87982341
:1017F800850775FF3385A7407D1582804552523E87
:101808003E3E204144432054696D656F7574206FD6
:101818006E2043682564210D0A0000005359533E89
:101828003E3E2053797374656D436C6B3A25640DA5
:101838000A0000005359533E3E3E204368697049F0
:10184800443A253038780D0A000000005359533EB9
:101858003E3E204D61696E20506F776572204F4E75
:10186800210D00005359533E3E3E204D61696E20C4
:10187800506F776572204F4646210D005359533EED
:101888003E3E2025303664732E0D0A005057523ED6
:101898003E3E20564255533A253035646D412C2042
:1018A80035563A253034646D412C203132563A256C
:1018B8003034646D412E0D0A00000000286E756CEE
:1018C8006C290000F615000060160000841700005F
:1018D80084170000841700001C1400001C1400006A
:1018E8001C1400001C1400001C1400001C14000030
:1018F8001C14000026170000F41600001C14000039
:101908001C140000421600001C140000BC16000045
:0C1918001C1400001C140000A0160000AD
:10192400010203040506070801020304050607086B
:10193400006CDC020204060804080C1008101820CD
:10194400102030402040608001020304050607088F
:08195400010203040506070867
:00000001FF
